{
  "_format": "hh-sol-artifact-1",
  "contractName": "RandomNumberConsumer",
  "sourceName": "contracts/VfrContract.sol",
  "abi": [
    {
      "inputs": [],
      "stateMutability": "nonpayable",
      "type": "constructor"
    },
    {
      "inputs": [],
      "name": "getRandomNumber",
      "outputs": [
        {
          "internalType": "bytes32",
          "name": "requestId",
          "type": "bytes32"
        }
      ],
      "stateMutability": "nonpayable",
      "type": "function"
    },
    {
      "inputs": [],
      "name": "randomResult",
      "outputs": [
        {
          "internalType": "uint256",
          "name": "",
          "type": "uint256"
        }
      ],
      "stateMutability": "view",
      "type": "function"
    },
    {
      "inputs": [
        {
          "internalType": "bytes32",
          "name": "requestId",
          "type": "bytes32"
        },
        {
          "internalType": "uint256",
          "name": "randomness",
          "type": "uint256"
        }
      ],
      "name": "rawFulfillRandomness",
      "outputs": [],
      "stateMutability": "nonpayable",
      "type": "function"
    },
    {
      "inputs": [
        {
          "internalType": "uint256",
          "name": "",
          "type": "uint256"
        }
      ],
      "name": "requestToRandom",
      "outputs": [
        {
          "internalType": "uint256",
          "name": "",
          "type": "uint256"
        }
      ],
      "stateMutability": "view",
      "type": "function"
    }
  ],
  "bytecode": "0x60c060405234801561001057600080fd5b5073dd3782915140c8f3b190b5d67eac6dc5760c46e973a36085f69e2889c224210f603d836748e7dc00888173ffffffffffffffffffffffffffffffffffffffff1660a08173ffffffffffffffffffffffffffffffffffffffff1660601b815250508073ffffffffffffffffffffffffffffffffffffffff1660808173ffffffffffffffffffffffffffffffffffffffff1660601b8152505050507f6c3699283bda56ad74f6b855546325b68d482e983852a7a82979cc4807b641f460001b60018190555067016345785d8a000060028190555060805160601c60a05160601c610a0b61011c6000396000818160f901526102e001526000818161019a01526102a40152610a0b6000f3fe608060405234801561001057600080fd5b506004361061004c5760003560e01c806342619f66146100515780634a9e56911461006f57806394985ddd1461009f578063dbdff2c1146100bb575b600080fd5b6100596100d9565b60405161006691906107a1565b60405180910390f35b61008960048036038101906100849190610527565b6100df565b60405161009691906107a1565b60405180910390f35b6100b960048036038101906100b491906104eb565b6100f7565b005b6100c3610193565b6040516100d091906106d8565b60405180910390f35b60035481565b60046020528060005260406000206000915090505481565b7f000000000000000000000000000000000000000000000000000000000000000073ffffffffffffffffffffffffffffffffffffffff163373ffffffffffffffffffffffffffffffffffffffff1614610185576040517f08c379a000000000000000000000000000000000000000000000000000000000815260040161017c90610781565b60405180910390fd5b61018f8282610295565b5050565b60006002547f000000000000000000000000000000000000000000000000000000000000000073ffffffffffffffffffffffffffffffffffffffff166370a08231306040518263ffffffff1660e01b81526004016101f1919061067f565b60206040518083038186803b15801561020957600080fd5b505afa15801561021d573d6000803e3d6000fd5b505050506040513d601f19601f820116820180604052508101906102419190610550565b1015610282576040517f08c379a000000000000000000000000000000000000000000000000000000000815260040161027990610761565b60405180910390fd5b6102906001546002546102a0565b905090565b806003819055505050565b60007f000000000000000000000000000000000000000000000000000000000000000073ffffffffffffffffffffffffffffffffffffffff16634000aea07f0000000000000000000000000000000000000000000000000000000000000000848660006040516020016103149291906106f3565b6040516020818303038152906040526040518463ffffffff1660e01b81526004016103419392919061069a565b602060405180830381600087803b15801561035b57600080fd5b505af115801561036f573d6000803e3d6000fd5b505050506040513d601f19601f8201168201806040525081019061039391906104c2565b5060006103b584600030600080898152602001908152602001600020546103ff565b90506001600080868152602001908152602001600020546103d691906107e9565b600080868152602001908152602001600020819055506103f6848261043b565b91505092915050565b600084848484604051602001610418949392919061071c565b6040516020818303038152906040528051906020012060001c9050949350505050565b60008282604051602001610450929190610653565b60405160208183030381529060405280519060200120905092915050565b60008151905061047d81610990565b92915050565b600081359050610492816109a7565b92915050565b6000813590506104a7816109be565b92915050565b6000815190506104bc816109be565b92915050565b6000602082840312156104d457600080fd5b60006104e28482850161046e565b91505092915050565b600080604083850312156104fe57600080fd5b600061050c85828601610483565b925050602061051d85828601610498565b9150509250929050565b60006020828403121561053957600080fd5b600061054784828501610498565b91505092915050565b60006020828403121561056257600080fd5b6000610570848285016104ad565b91505092915050565b6105828161083f565b82525050565b6105918161085d565b82525050565b6105a86105a38261085d565b6108c4565b82525050565b60006105b9826107bc565b6105c381856107c7565b93506105d3818560208601610891565b6105dc81610907565b840191505092915050565b60006105f4602b836107d8565b91506105ff82610918565b604082019050919050565b6000610617601f836107d8565b915061062282610967565b602082019050919050565b61063681610887565b82525050565b61064d61064882610887565b6108ce565b82525050565b600061065f8285610597565b60208201915061066f828461063c565b6020820191508190509392505050565b60006020820190506106946000830184610579565b92915050565b60006060820190506106af6000830186610579565b6106bc602083018561062d565b81810360408301526106ce81846105ae565b9050949350505050565b60006020820190506106ed6000830184610588565b92915050565b60006040820190506107086000830185610588565b610715602083018461062d565b9392505050565b60006080820190506107316000830187610588565b61073e602083018661062d565b61074b6040830185610579565b610758606083018461062d565b95945050505050565b6000602082019050818103600083015261077a816105e7565b9050919050565b6000602082019050818103600083015261079a8161060a565b9050919050565b60006020820190506107b6600083018461062d565b92915050565b600081519050919050565b600082825260208201905092915050565b600082825260208201905092915050565b60006107f482610887565b91506107ff83610887565b9250827fffffffffffffffffffffffffffffffffffffffffffffffffffffffffffffffff03821115610834576108336108d8565b5b828201905092915050565b600061084a82610867565b9050919050565b60008115159050919050565b6000819050919050565b600073ffffffffffffffffffffffffffffffffffffffff82169050919050565b6000819050919050565b60005b838110156108af578082015181840152602081019050610894565b838111156108be576000848401525b50505050565b6000819050919050565b6000819050919050565b7f4e487b7100000000000000000000000000000000000000000000000000000000600052601160045260246000fd5b6000601f19601f8301169050919050565b7f4e6f7420656e6f756768204c494e4b202d2066696c6c20636f6e74726163742060008201527f7769746820666175636574000000000000000000000000000000000000000000602082015250565b7f4f6e6c7920565246436f6f7264696e61746f722063616e2066756c66696c6c00600082015250565b61099981610851565b81146109a457600080fd5b50565b6109b08161085d565b81146109bb57600080fd5b50565b6109c781610887565b81146109d257600080fd5b5056fea2646970667358221220cd10822498a5a21487b0c63cd260eb213924594f998ccb517ef896fd96d85c1664736f6c63430008040033",
  "linkReferences": {},
  "deployedLinkReferences": {}
}