{
  "_format": "hh-sol-artifact-1",
  "contractName": "SimpleNftContract",
  "sourceName": "contracts/3-SimpleNftContract.sol",
  "abi": [
    {
      "inputs": [],
      "stateMutability": "nonpayable",
      "type": "constructor"
    },
    {
      "anonymous": false,
      "inputs": [
        {
          "indexed": true,
          "internalType": "address",
          "name": "owner",
          "type": "address"
        },
        {
          "indexed": true,
          "internalType": "address",
          "name": "approved",
          "type": "address"
        },
        {
          "indexed": true,
          "internalType": "uint256",
          "name": "tokenId",
          "type": "uint256"
        }
      ],
      "name": "Approval",
      "type": "event"
    },
    {
      "anonymous": false,
      "inputs": [
        {
          "indexed": true,
          "internalType": "address",
          "name": "owner",
          "type": "address"
        },
        {
          "indexed": true,
          "internalType": "address",
          "name": "operator",
          "type": "address"
        },
        {
          "indexed": false,
          "internalType": "bool",
          "name": "approved",
          "type": "bool"
        }
      ],
      "name": "ApprovalForAll",
      "type": "event"
    },
    {
      "anonymous": false,
      "inputs": [
        {
          "indexed": true,
          "internalType": "address",
          "name": "previousOwner",
          "type": "address"
        },
        {
          "indexed": true,
          "internalType": "address",
          "name": "newOwner",
          "type": "address"
        }
      ],
      "name": "OwnershipTransferred",
      "type": "event"
    },
    {
      "anonymous": false,
      "inputs": [
        {
          "indexed": true,
          "internalType": "address",
          "name": "from",
          "type": "address"
        },
        {
          "indexed": true,
          "internalType": "address",
          "name": "to",
          "type": "address"
        },
        {
          "indexed": true,
          "internalType": "uint256",
          "name": "tokenId",
          "type": "uint256"
        }
      ],
      "name": "Transfer",
      "type": "event"
    },
    {
      "inputs": [],
      "name": "_tokenIds",
      "outputs": [
        {
          "internalType": "uint256",
          "name": "_value",
          "type": "uint256"
        }
      ],
      "stateMutability": "view",
      "type": "function"
    },
    {
      "inputs": [
        {
          "internalType": "address",
          "name": "to",
          "type": "address"
        },
        {
          "internalType": "uint256",
          "name": "tokenId",
          "type": "uint256"
        }
      ],
      "name": "approve",
      "outputs": [],
      "stateMutability": "nonpayable",
      "type": "function"
    },
    {
      "inputs": [
        {
          "internalType": "address",
          "name": "owner",
          "type": "address"
        }
      ],
      "name": "balanceOf",
      "outputs": [
        {
          "internalType": "uint256",
          "name": "",
          "type": "uint256"
        }
      ],
      "stateMutability": "view",
      "type": "function"
    },
    {
      "inputs": [
        {
          "internalType": "uint256",
          "name": "tokenId",
          "type": "uint256"
        }
      ],
      "name": "getApproved",
      "outputs": [
        {
          "internalType": "address",
          "name": "",
          "type": "address"
        }
      ],
      "stateMutability": "view",
      "type": "function"
    },
    {
      "inputs": [
        {
          "internalType": "address",
          "name": "owner",
          "type": "address"
        },
        {
          "internalType": "address",
          "name": "operator",
          "type": "address"
        }
      ],
      "name": "isApprovedForAll",
      "outputs": [
        {
          "internalType": "bool",
          "name": "",
          "type": "bool"
        }
      ],
      "stateMutability": "view",
      "type": "function"
    },
    {
      "inputs": [
        {
          "internalType": "address",
          "name": "to",
          "type": "address"
        },
        {
          "internalType": "string",
          "name": "_tokenURI",
          "type": "string"
        }
      ],
      "name": "mintItem",
      "outputs": [
        {
          "internalType": "uint256",
          "name": "",
          "type": "uint256"
        }
      ],
      "stateMutability": "nonpayable",
      "type": "function"
    },
    {
      "inputs": [],
      "name": "name",
      "outputs": [
        {
          "internalType": "string",
          "name": "",
          "type": "string"
        }
      ],
      "stateMutability": "view",
      "type": "function"
    },
    {
      "inputs": [],
      "name": "owner",
      "outputs": [
        {
          "internalType": "address",
          "name": "",
          "type": "address"
        }
      ],
      "stateMutability": "view",
      "type": "function"
    },
    {
      "inputs": [
        {
          "internalType": "uint256",
          "name": "tokenId",
          "type": "uint256"
        }
      ],
      "name": "ownerOf",
      "outputs": [
        {
          "internalType": "address",
          "name": "",
          "type": "address"
        }
      ],
      "stateMutability": "view",
      "type": "function"
    },
    {
      "inputs": [],
      "name": "renounceOwnership",
      "outputs": [],
      "stateMutability": "nonpayable",
      "type": "function"
    },
    {
      "inputs": [
        {
          "internalType": "address",
          "name": "from",
          "type": "address"
        },
        {
          "internalType": "address",
          "name": "to",
          "type": "address"
        },
        {
          "internalType": "uint256",
          "name": "tokenId",
          "type": "uint256"
        }
      ],
      "name": "safeTransferFrom",
      "outputs": [],
      "stateMutability": "nonpayable",
      "type": "function"
    },
    {
      "inputs": [
        {
          "internalType": "address",
          "name": "from",
          "type": "address"
        },
        {
          "internalType": "address",
          "name": "to",
          "type": "address"
        },
        {
          "internalType": "uint256",
          "name": "tokenId",
          "type": "uint256"
        },
        {
          "internalType": "bytes",
          "name": "_data",
          "type": "bytes"
        }
      ],
      "name": "safeTransferFrom",
      "outputs": [],
      "stateMutability": "nonpayable",
      "type": "function"
    },
    {
      "inputs": [
        {
          "internalType": "address",
          "name": "operator",
          "type": "address"
        },
        {
          "internalType": "bool",
          "name": "approved",
          "type": "bool"
        }
      ],
      "name": "setApprovalForAll",
      "outputs": [],
      "stateMutability": "nonpayable",
      "type": "function"
    },
    {
      "inputs": [
        {
          "internalType": "bytes4",
          "name": "interfaceId",
          "type": "bytes4"
        }
      ],
      "name": "supportsInterface",
      "outputs": [
        {
          "internalType": "bool",
          "name": "",
          "type": "bool"
        }
      ],
      "stateMutability": "view",
      "type": "function"
    },
    {
      "inputs": [],
      "name": "symbol",
      "outputs": [
        {
          "internalType": "string",
          "name": "",
          "type": "string"
        }
      ],
      "stateMutability": "view",
      "type": "function"
    },
    {
      "inputs": [
        {
          "internalType": "uint256",
          "name": "index",
          "type": "uint256"
        }
      ],
      "name": "tokenByIndex",
      "outputs": [
        {
          "internalType": "uint256",
          "name": "",
          "type": "uint256"
        }
      ],
      "stateMutability": "view",
      "type": "function"
    },
    {
      "inputs": [
        {
          "internalType": "address",
          "name": "owner",
          "type": "address"
        },
        {
          "internalType": "uint256",
          "name": "index",
          "type": "uint256"
        }
      ],
      "name": "tokenOfOwnerByIndex",
      "outputs": [
        {
          "internalType": "uint256",
          "name": "",
          "type": "uint256"
        }
      ],
      "stateMutability": "view",
      "type": "function"
    },
    {
      "inputs": [
        {
          "internalType": "uint256",
          "name": "tokenId",
          "type": "uint256"
        }
      ],
      "name": "tokenURI",
      "outputs": [
        {
          "internalType": "string",
          "name": "",
          "type": "string"
        }
      ],
      "stateMutability": "view",
      "type": "function"
    },
    {
      "inputs": [],
      "name": "totalSupply",
      "outputs": [
        {
          "internalType": "uint256",
          "name": "",
          "type": "uint256"
        }
      ],
      "stateMutability": "view",
      "type": "function"
    },
    {
      "inputs": [
        {
          "internalType": "address",
          "name": "from",
          "type": "address"
        },
        {
          "internalType": "address",
          "name": "to",
          "type": "address"
        },
        {
          "internalType": "uint256",
          "name": "tokenId",
          "type": "uint256"
        }
      ],
      "name": "transferFrom",
      "outputs": [],
      "stateMutability": "nonpayable",
      "type": "function"
    },
    {
      "inputs": [
        {
          "internalType": "address",
          "name": "newOwner",
          "type": "address"
        }
      ],
      "name": "transferOwnership",
      "outputs": [],
      "stateMutability": "nonpayable",
      "type": "function"
    }
  ],
  "bytecode": "0x60806040523480156200001157600080fd5b506040518060400160405280601381526020017f53696d706c65204e465420436f6e7472616374000000000000000000000000008152506040518060400160405280600381526020017f534e430000000000000000000000000000000000000000000000000000000000815250816000908051906020019062000096929190620001a6565b508060019080519060200190620000af929190620001a6565b505050620000d2620000c6620000d860201b60201c565b620000e060201b60201c565b620002bb565b600033905090565b6000600b60009054906101000a900473ffffffffffffffffffffffffffffffffffffffff16905081600b60006101000a81548173ffffffffffffffffffffffffffffffffffffffff021916908373ffffffffffffffffffffffffffffffffffffffff1602179055508173ffffffffffffffffffffffffffffffffffffffff168173ffffffffffffffffffffffffffffffffffffffff167f8be0079c531659141344cd1fd0a4f28419497f9722a3daafe3b4186f6b6457e060405160405180910390a35050565b828054620001b49062000256565b90600052602060002090601f016020900481019282620001d8576000855562000224565b82601f10620001f357805160ff191683800117855562000224565b8280016001018555821562000224579182015b828111156200022357825182559160200191906001019062000206565b5b50905062000233919062000237565b5090565b5b808211156200025257600081600090555060010162000238565b5090565b600060028204905060018216806200026f57607f821691505b602082108114156200028657620002856200028c565b5b50919050565b7f4e487b7100000000000000000000000000000000000000000000000000000000600052602260045260246000fd5b61388080620002cb6000396000f3fe608060405234801561001057600080fd5b50600436106101375760003560e01c80636352211e116100b8578063a22cb4651161007c578063a22cb46514610362578063aa46a4001461037e578063b88d4fde1461039c578063c87b56dd146103b8578063e985e9c5146103e8578063f2fde38b1461041857610137565b80636352211e146102bc57806370a08231146102ec578063715018a61461031c5780638da5cb5b1461032657806395d89b411461034457610137565b806318160ddd116100ff57806318160ddd1461020657806323b872dd146102245780632f745c591461024057806342842e0e146102705780634f6ccce71461028c57610137565b806301ffc9a71461013c57806306fdde031461016c578063081812fc1461018a578063095ea7b3146101ba578063110bcd45146101d6575b600080fd5b6101566004803603810190610151919061270b565b610434565b6040516101639190612b9d565b60405180910390f35b610174610446565b6040516101819190612bb8565b60405180910390f35b6101a4600480360381019061019f919061275d565b6104d8565b6040516101b19190612b36565b60405180910390f35b6101d460048036038101906101cf91906126cf565b61055d565b005b6101f060048036038101906101eb919061267b565b610675565b6040516101fd9190612e5a565b60405180910390f35b61020e610729565b60405161021b9190612e5a565b60405180910390f35b61023e60048036038101906102399190612575565b610736565b005b61025a600480360381019061025591906126cf565b610796565b6040516102679190612e5a565b60405180910390f35b61028a60048036038101906102859190612575565b61083b565b005b6102a660048036038101906102a1919061275d565b61085b565b6040516102b39190612e5a565b60405180910390f35b6102d660048036038101906102d1919061275d565b6108f2565b6040516102e39190612b36565b60405180910390f35b61030660048036038101906103019190612510565b6109a4565b6040516103139190612e5a565b60405180910390f35b610324610a5c565b005b61032e610ae4565b60405161033b9190612b36565b60405180910390f35b61034c610b0e565b6040516103599190612bb8565b60405180910390f35b61037c6004803603810190610377919061263f565b610ba0565b005b610386610bb6565b6040516103939190612e5a565b60405180910390f35b6103b660048036038101906103b191906125c4565b610bc2565b005b6103d260048036038101906103cd919061275d565b610c24565b6040516103df9190612bb8565b60405180910390f35b61040260048036038101906103fd9190612539565b610c7e565b60405161040f9190612b9d565b60405180910390f35b610432600480360381019061042d9190612510565b610d12565b005b600061043f82610e0a565b9050919050565b606060008054610455906130b0565b80601f0160208091040260200160405190810160405280929190818152602001828054610481906130b0565b80156104ce5780601f106104a3576101008083540402835291602001916104ce565b820191906000526020600020905b8154815290600101906020018083116104b157829003601f168201915b5050505050905090565b60006104e382610e84565b610522576040517f08c379a000000000000000000000000000000000000000000000000000000000815260040161051990612d7a565b60405180910390fd5b6004600083815260200190815260200160002060009054906101000a900473ffffffffffffffffffffffffffffffffffffffff169050919050565b6000610568826108f2565b90508073ffffffffffffffffffffffffffffffffffffffff168373ffffffffffffffffffffffffffffffffffffffff1614156105d9576040517f08c379a00000000000000000000000000000000000000000000000000000000081526004016105d090612dfa565b60405180910390fd5b8073ffffffffffffffffffffffffffffffffffffffff166105f8610ef0565b73ffffffffffffffffffffffffffffffffffffffff161480610627575061062681610621610ef0565b610c7e565b5b610666576040517f08c379a000000000000000000000000000000000000000000000000000000000815260040161065d90612cba565b60405180910390fd5b6106708383610ef8565b505050565b600061067f610ef0565b73ffffffffffffffffffffffffffffffffffffffff1661069d610ae4565b73ffffffffffffffffffffffffffffffffffffffff16146106f3576040517f08c379a00000000000000000000000000000000000000000000000000000000081526004016106ea90612d9a565b60405180910390fd5b6106fd600c610fb1565b6000610709600c610fc7565b90506107158482610fd5565b61071f81846111a3565b8091505092915050565b6000600980549050905090565b610747610741610ef0565b82611217565b610786576040517f08c379a000000000000000000000000000000000000000000000000000000000815260040161077d90612e1a565b60405180910390fd5b6107918383836112f5565b505050565b60006107a1836109a4565b82106107e2576040517f08c379a00000000000000000000000000000000000000000000000000000000081526004016107d990612bda565b60405180910390fd5b600760008473ffffffffffffffffffffffffffffffffffffffff1673ffffffffffffffffffffffffffffffffffffffff168152602001908152602001600020600083815260200190815260200160002054905092915050565b61085683838360405180602001604052806000815250610bc2565b505050565b6000610865610729565b82106108a6576040517f08c379a000000000000000000000000000000000000000000000000000000000815260040161089d90612e3a565b60405180910390fd5b600982815481106108e0577f4e487b7100000000000000000000000000000000000000000000000000000000600052603260045260246000fd5b90600052602060002001549050919050565b6000806002600084815260200190815260200160002060009054906101000a900473ffffffffffffffffffffffffffffffffffffffff169050600073ffffffffffffffffffffffffffffffffffffffff168173ffffffffffffffffffffffffffffffffffffffff16141561099b576040517f08c379a000000000000000000000000000000000000000000000000000000000815260040161099290612cfa565b60405180910390fd5b80915050919050565b60008073ffffffffffffffffffffffffffffffffffffffff168273ffffffffffffffffffffffffffffffffffffffff161415610a15576040517f08c379a0000000000000000000000000000000000000000000000000000000008152600401610a0c90612cda565b60405180910390fd5b600360008373ffffffffffffffffffffffffffffffffffffffff1673ffffffffffffffffffffffffffffffffffffffff168152602001908152602001600020549050919050565b610a64610ef0565b73ffffffffffffffffffffffffffffffffffffffff16610a82610ae4565b73ffffffffffffffffffffffffffffffffffffffff1614610ad8576040517f08c379a0000000000000000000000000000000000000000000000000000000008152600401610acf90612d9a565b60405180910390fd5b610ae26000611551565b565b6000600b60009054906101000a900473ffffffffffffffffffffffffffffffffffffffff16905090565b606060018054610b1d906130b0565b80601f0160208091040260200160405190810160405280929190818152602001828054610b49906130b0565b8015610b965780601f10610b6b57610100808354040283529160200191610b96565b820191906000526020600020905b815481529060010190602001808311610b7957829003601f168201915b5050505050905090565b610bb2610bab610ef0565b8383611617565b5050565b600c8060000154905081565b610bd3610bcd610ef0565b83611217565b610c12576040517f08c379a0000000000000000000000000000000000000000000000000000000008152600401610c0990612e1a565b60405180910390fd5b610c1e84848484611784565b50505050565b6060610c2f82610e84565b610c6e576040517f08c379a0000000000000000000000000000000000000000000000000000000008152600401610c6590612d5a565b60405180910390fd5b610c77826117e0565b9050919050565b6000600560008473ffffffffffffffffffffffffffffffffffffffff1673ffffffffffffffffffffffffffffffffffffffff16815260200190815260200160002060008373ffffffffffffffffffffffffffffffffffffffff1673ffffffffffffffffffffffffffffffffffffffff16815260200190815260200160002060009054906101000a900460ff16905092915050565b610d1a610ef0565b73ffffffffffffffffffffffffffffffffffffffff16610d38610ae4565b73ffffffffffffffffffffffffffffffffffffffff1614610d8e576040517f08c379a0000000000000000000000000000000000000000000000000000000008152600401610d8590612d9a565b60405180910390fd5b600073ffffffffffffffffffffffffffffffffffffffff168173ffffffffffffffffffffffffffffffffffffffff161415610dfe576040517f08c379a0000000000000000000000000000000000000000000000000000000008152600401610df590612c1a565b60405180910390fd5b610e0781611551565b50565b60007f780e9d63000000000000000000000000000000000000000000000000000000007bffffffffffffffffffffffffffffffffffffffffffffffffffffffff1916827bffffffffffffffffffffffffffffffffffffffffffffffffffffffff19161480610e7d5750610e7c82611932565b5b9050919050565b60008073ffffffffffffffffffffffffffffffffffffffff166002600084815260200190815260200160002060009054906101000a900473ffffffffffffffffffffffffffffffffffffffff1673ffffffffffffffffffffffffffffffffffffffff1614159050919050565b600033905090565b816004600083815260200190815260200160002060006101000a81548173ffffffffffffffffffffffffffffffffffffffff021916908373ffffffffffffffffffffffffffffffffffffffff160217905550808273ffffffffffffffffffffffffffffffffffffffff16610f6b836108f2565b73ffffffffffffffffffffffffffffffffffffffff167f8c5be1e5ebec7d5bd14f71427d1e84f3dd0314c0f7b2291e5b200ac8c7c3b92560405160405180910390a45050565b6001816000016000828254019250508190555050565b600081600001549050919050565b600073ffffffffffffffffffffffffffffffffffffffff168273ffffffffffffffffffffffffffffffffffffffff161415611045576040517f08c379a000000000000000000000000000000000000000000000000000000000815260040161103c90612d3a565b60405180910390fd5b61104e81610e84565b1561108e576040517f08c379a000000000000000000000000000000000000000000000000000000000815260040161108590612c3a565b60405180910390fd5b61109a60008383611a14565b6001600360008473ffffffffffffffffffffffffffffffffffffffff1673ffffffffffffffffffffffffffffffffffffffff16815260200190815260200160002060008282546110ea9190612f3f565b92505081905550816002600083815260200190815260200160002060006101000a81548173ffffffffffffffffffffffffffffffffffffffff021916908373ffffffffffffffffffffffffffffffffffffffff160217905550808273ffffffffffffffffffffffffffffffffffffffff16600073ffffffffffffffffffffffffffffffffffffffff167fddf252ad1be2c89b69c2b068fc378daa952ba7f163c4a11628f55a4df523b3ef60405160405180910390a45050565b6111ac82610e84565b6111eb576040517f08c379a00000000000000000000000000000000000000000000000000000000081526004016111e290612d1a565b60405180910390fd5b80600660008481526020019081526020016000209080519060200190611212929190612334565b505050565b600061122282610e84565b611261576040517f08c379a000000000000000000000000000000000000000000000000000000000815260040161125890612c9a565b60405180910390fd5b600061126c836108f2565b90508073ffffffffffffffffffffffffffffffffffffffff168473ffffffffffffffffffffffffffffffffffffffff1614806112db57508373ffffffffffffffffffffffffffffffffffffffff166112c3846104d8565b73ffffffffffffffffffffffffffffffffffffffff16145b806112ec57506112eb8185610c7e565b5b91505092915050565b8273ffffffffffffffffffffffffffffffffffffffff16611315826108f2565b73ffffffffffffffffffffffffffffffffffffffff161461136b576040517f08c379a000000000000000000000000000000000000000000000000000000000815260040161136290612dba565b60405180910390fd5b600073ffffffffffffffffffffffffffffffffffffffff168273ffffffffffffffffffffffffffffffffffffffff1614156113db576040517f08c379a00000000000000000000000000000000000000000000000000000000081526004016113d290612c5a565b60405180910390fd5b6113e6838383611a14565b6113f1600082610ef8565b6001600360008573ffffffffffffffffffffffffffffffffffffffff1673ffffffffffffffffffffffffffffffffffffffff16815260200190815260200160002060008282546114419190612fc6565b925050819055506001600360008473ffffffffffffffffffffffffffffffffffffffff1673ffffffffffffffffffffffffffffffffffffffff16815260200190815260200160002060008282546114989190612f3f565b92505081905550816002600083815260200190815260200160002060006101000a81548173ffffffffffffffffffffffffffffffffffffffff021916908373ffffffffffffffffffffffffffffffffffffffff160217905550808273ffffffffffffffffffffffffffffffffffffffff168473ffffffffffffffffffffffffffffffffffffffff167fddf252ad1be2c89b69c2b068fc378daa952ba7f163c4a11628f55a4df523b3ef60405160405180910390a4505050565b6000600b60009054906101000a900473ffffffffffffffffffffffffffffffffffffffff16905081600b60006101000a81548173ffffffffffffffffffffffffffffffffffffffff021916908373ffffffffffffffffffffffffffffffffffffffff1602179055508173ffffffffffffffffffffffffffffffffffffffff168173ffffffffffffffffffffffffffffffffffffffff167f8be0079c531659141344cd1fd0a4f28419497f9722a3daafe3b4186f6b6457e060405160405180910390a35050565b8173ffffffffffffffffffffffffffffffffffffffff168373ffffffffffffffffffffffffffffffffffffffff161415611686576040517f08c379a000000000000000000000000000000000000000000000000000000000815260040161167d90612c7a565b60405180910390fd5b80600560008573ffffffffffffffffffffffffffffffffffffffff1673ffffffffffffffffffffffffffffffffffffffff16815260200190815260200160002060008473ffffffffffffffffffffffffffffffffffffffff1673ffffffffffffffffffffffffffffffffffffffff16815260200190815260200160002060006101000a81548160ff0219169083151502179055508173ffffffffffffffffffffffffffffffffffffffff168373ffffffffffffffffffffffffffffffffffffffff167f17307eab39ab6107e8899845ad3d59bd9653f200f220920489ca2b5937696c31836040516117779190612b9d565b60405180910390a3505050565b61178f8484846112f5565b61179b84848484611a24565b6117da576040517f08c379a00000000000000000000000000000000000000000000000000000000081526004016117d190612bfa565b60405180910390fd5b50505050565b60606117eb82610e84565b61182a576040517f08c379a000000000000000000000000000000000000000000000000000000000815260040161182190612d5a565b60405180910390fd5b600060066000848152602001908152602001600020805461184a906130b0565b80601f0160208091040260200160405190810160405280929190818152602001828054611876906130b0565b80156118c35780601f10611898576101008083540402835291602001916118c3565b820191906000526020600020905b8154815290600101906020018083116118a657829003601f168201915b5050505050905060006118d4611bbb565b90506000815114156118ea57819250505061192d565b60008251111561191f578082604051602001611907929190612b12565b6040516020818303038152906040529250505061192d565b61192884611bd2565b925050505b919050565b60007f80ac58cd000000000000000000000000000000000000000000000000000000007bffffffffffffffffffffffffffffffffffffffffffffffffffffffff1916827bffffffffffffffffffffffffffffffffffffffffffffffffffffffff191614806119fd57507f5b5e139f000000000000000000000000000000000000000000000000000000007bffffffffffffffffffffffffffffffffffffffffffffffffffffffff1916827bffffffffffffffffffffffffffffffffffffffffffffffffffffffff1916145b80611a0d5750611a0c82611c79565b5b9050919050565b611a1f838383611ce3565b505050565b6000611a458473ffffffffffffffffffffffffffffffffffffffff16611df7565b15611bae578373ffffffffffffffffffffffffffffffffffffffff1663150b7a02611a6e610ef0565b8786866040518563ffffffff1660e01b8152600401611a909493929190612b51565b602060405180830381600087803b158015611aaa57600080fd5b505af1925050508015611adb57506040513d601f19601f82011682018060405250810190611ad89190612734565b60015b611b5e573d8060008114611b0b576040519150601f19603f3d011682016040523d82523d6000602084013e611b10565b606091505b50600081511415611b56576040517f08c379a0000000000000000000000000000000000000000000000000000000008152600401611b4d90612bfa565b60405180910390fd5b805181602001fd5b63150b7a0260e01b7bffffffffffffffffffffffffffffffffffffffffffffffffffffffff1916817bffffffffffffffffffffffffffffffffffffffffffffffffffffffff191614915050611bb3565b600190505b949350505050565b606060405180602001604052806000815250905090565b6060611bdd82610e84565b611c1c576040517f08c379a0000000000000000000000000000000000000000000000000000000008152600401611c1390612dda565b60405180910390fd5b6000611c26611bbb565b90506000815111611c465760405180602001604052806000815250611c71565b80611c5084611e0a565b604051602001611c61929190612b12565b6040516020818303038152906040525b915050919050565b60007f01ffc9a7000000000000000000000000000000000000000000000000000000007bffffffffffffffffffffffffffffffffffffffffffffffffffffffff1916827bffffffffffffffffffffffffffffffffffffffffffffffffffffffff1916149050919050565b611cee838383611fb7565b600073ffffffffffffffffffffffffffffffffffffffff168373ffffffffffffffffffffffffffffffffffffffff161415611d3157611d2c81611fbc565b611d70565b8173ffffffffffffffffffffffffffffffffffffffff168373ffffffffffffffffffffffffffffffffffffffff1614611d6f57611d6e8382612005565b5b5b600073ffffffffffffffffffffffffffffffffffffffff168273ffffffffffffffffffffffffffffffffffffffff161415611db357611dae81612172565b611df2565b8273ffffffffffffffffffffffffffffffffffffffff168273ffffffffffffffffffffffffffffffffffffffff1614611df157611df082826122b5565b5b5b505050565b600080823b905060008111915050919050565b60606000821415611e52576040518060400160405280600181526020017f30000000000000000000000000000000000000000000000000000000000000008152509050611fb2565b600082905060005b60008214611e84578080611e6d90613113565b915050600a82611e7d9190612f95565b9150611e5a565b60008167ffffffffffffffff811115611ec6577f4e487b7100000000000000000000000000000000000000000000000000000000600052604160045260246000fd5b6040519080825280601f01601f191660200182016040528015611ef85781602001600182028036833780820191505090505b5090505b60008514611fab57600182611f119190612fc6565b9150600a85611f20919061315c565b6030611f2c9190612f3f565b60f81b818381518110611f68577f4e487b7100000000000000000000000000000000000000000000000000000000600052603260045260246000fd5b60200101907effffffffffffffffffffffffffffffffffffffffffffffffffffffffffffff1916908160001a905350600a85611fa49190612f95565b9450611efc565b8093505050505b919050565b505050565b600980549050600a600083815260200190815260200160002081905550600981908060018154018082558091505060019003906000526020600020016000909190919091505550565b60006001612012846109a4565b61201c9190612fc6565b9050600060086000848152602001908152602001600020549050818114612101576000600760008673ffffffffffffffffffffffffffffffffffffffff1673ffffffffffffffffffffffffffffffffffffffff168152602001908152602001600020600084815260200190815260200160002054905080600760008773ffffffffffffffffffffffffffffffffffffffff1673ffffffffffffffffffffffffffffffffffffffff168152602001908152602001600020600084815260200190815260200160002081905550816008600083815260200190815260200160002081905550505b6008600084815260200190815260200160002060009055600760008573ffffffffffffffffffffffffffffffffffffffff1673ffffffffffffffffffffffffffffffffffffffff16815260200190815260200160002060008381526020019081526020016000206000905550505050565b600060016009805490506121869190612fc6565b90506000600a60008481526020019081526020016000205490506000600983815481106121dc577f4e487b7100000000000000000000000000000000000000000000000000000000600052603260045260246000fd5b906000526020600020015490508060098381548110612224577f4e487b7100000000000000000000000000000000000000000000000000000000600052603260045260246000fd5b906000526020600020018190555081600a600083815260200190815260200160002081905550600a6000858152602001908152602001600020600090556009805480612299577f4e487b7100000000000000000000000000000000000000000000000000000000600052603160045260246000fd5b6001900381819060005260206000200160009055905550505050565b60006122c0836109a4565b905081600760008573ffffffffffffffffffffffffffffffffffffffff1673ffffffffffffffffffffffffffffffffffffffff168152602001908152602001600020600083815260200190815260200160002081905550806008600084815260200190815260200160002081905550505050565b828054612340906130b0565b90600052602060002090601f01602090048101928261236257600085556123a9565b82601f1061237b57805160ff19168380011785556123a9565b828001600101855582156123a9579182015b828111156123a857825182559160200191906001019061238d565b5b5090506123b691906123ba565b5090565b5b808211156123d35760008160009055506001016123bb565b5090565b60006123ea6123e584612e9a565b612e75565b90508281526020810184848401111561240257600080fd5b61240d84828561306e565b509392505050565b600061242861242384612ecb565b612e75565b90508281526020810184848401111561244057600080fd5b61244b84828561306e565b509392505050565b600081359050612462816137ee565b92915050565b60008135905061247781613805565b92915050565b60008135905061248c8161381c565b92915050565b6000815190506124a18161381c565b92915050565b600082601f8301126124b857600080fd5b81356124c88482602086016123d7565b91505092915050565b600082601f8301126124e257600080fd5b81356124f2848260208601612415565b91505092915050565b60008135905061250a81613833565b92915050565b60006020828403121561252257600080fd5b600061253084828501612453565b91505092915050565b6000806040838503121561254c57600080fd5b600061255a85828601612453565b925050602061256b85828601612453565b9150509250929050565b60008060006060848603121561258a57600080fd5b600061259886828701612453565b93505060206125a986828701612453565b92505060406125ba868287016124fb565b9150509250925092565b600080600080608085870312156125da57600080fd5b60006125e887828801612453565b94505060206125f987828801612453565b935050604061260a878288016124fb565b925050606085013567ffffffffffffffff81111561262757600080fd5b612633878288016124a7565b91505092959194509250565b6000806040838503121561265257600080fd5b600061266085828601612453565b925050602061267185828601612468565b9150509250929050565b6000806040838503121561268e57600080fd5b600061269c85828601612453565b925050602083013567ffffffffffffffff8111156126b957600080fd5b6126c5858286016124d1565b9150509250929050565b600080604083850312156126e257600080fd5b60006126f085828601612453565b9250506020612701858286016124fb565b9150509250929050565b60006020828403121561271d57600080fd5b600061272b8482850161247d565b91505092915050565b60006020828403121561274657600080fd5b600061275484828501612492565b91505092915050565b60006020828403121561276f57600080fd5b600061277d848285016124fb565b91505092915050565b61278f81612ffa565b82525050565b61279e8161300c565b82525050565b60006127af82612efc565b6127b98185612f12565b93506127c981856020860161307d565b6127d281613249565b840191505092915050565b60006127e882612f07565b6127f28185612f23565b935061280281856020860161307d565b61280b81613249565b840191505092915050565b600061282182612f07565b61282b8185612f34565b935061283b81856020860161307d565b80840191505092915050565b6000612854602b83612f23565b915061285f8261325a565b604082019050919050565b6000612877603283612f23565b9150612882826132a9565b604082019050919050565b600061289a602683612f23565b91506128a5826132f8565b604082019050919050565b60006128bd601c83612f23565b91506128c882613347565b602082019050919050565b60006128e0602483612f23565b91506128eb82613370565b604082019050919050565b6000612903601983612f23565b915061290e826133bf565b602082019050919050565b6000612926602c83612f23565b9150612931826133e8565b604082019050919050565b6000612949603883612f23565b915061295482613437565b604082019050919050565b600061296c602a83612f23565b915061297782613486565b604082019050919050565b600061298f602983612f23565b915061299a826134d5565b604082019050919050565b60006129b2602e83612f23565b91506129bd82613524565b604082019050919050565b60006129d5602083612f23565b91506129e082613573565b602082019050919050565b60006129f8603183612f23565b9150612a038261359c565b604082019050919050565b6000612a1b602c83612f23565b9150612a26826135eb565b604082019050919050565b6000612a3e602083612f23565b9150612a498261363a565b602082019050919050565b6000612a61602983612f23565b9150612a6c82613663565b604082019050919050565b6000612a84602f83612f23565b9150612a8f826136b2565b604082019050919050565b6000612aa7602183612f23565b9150612ab282613701565b604082019050919050565b6000612aca603183612f23565b9150612ad582613750565b604082019050919050565b6000612aed602c83612f23565b9150612af88261379f565b604082019050919050565b612b0c81613064565b82525050565b6000612b1e8285612816565b9150612b2a8284612816565b91508190509392505050565b6000602082019050612b4b6000830184612786565b92915050565b6000608082019050612b666000830187612786565b612b736020830186612786565b612b806040830185612b03565b8181036060830152612b9281846127a4565b905095945050505050565b6000602082019050612bb26000830184612795565b92915050565b60006020820190508181036000830152612bd281846127dd565b905092915050565b60006020820190508181036000830152612bf381612847565b9050919050565b60006020820190508181036000830152612c138161286a565b9050919050565b60006020820190508181036000830152612c338161288d565b9050919050565b60006020820190508181036000830152612c53816128b0565b9050919050565b60006020820190508181036000830152612c73816128d3565b9050919050565b60006020820190508181036000830152612c93816128f6565b9050919050565b60006020820190508181036000830152612cb381612919565b9050919050565b60006020820190508181036000830152612cd38161293c565b9050919050565b60006020820190508181036000830152612cf38161295f565b9050919050565b60006020820190508181036000830152612d1381612982565b9050919050565b60006020820190508181036000830152612d33816129a5565b9050919050565b60006020820190508181036000830152612d53816129c8565b9050919050565b60006020820190508181036000830152612d73816129eb565b9050919050565b60006020820190508181036000830152612d9381612a0e565b9050919050565b60006020820190508181036000830152612db381612a31565b9050919050565b60006020820190508181036000830152612dd381612a54565b9050919050565b60006020820190508181036000830152612df381612a77565b9050919050565b60006020820190508181036000830152612e1381612a9a565b9050919050565b60006020820190508181036000830152612e3381612abd565b9050919050565b60006020820190508181036000830152612e5381612ae0565b9050919050565b6000602082019050612e6f6000830184612b03565b92915050565b6000612e7f612e90565b9050612e8b82826130e2565b919050565b6000604051905090565b600067ffffffffffffffff821115612eb557612eb461321a565b5b612ebe82613249565b9050602081019050919050565b600067ffffffffffffffff821115612ee657612ee561321a565b5b612eef82613249565b9050602081019050919050565b600081519050919050565b600081519050919050565b600082825260208201905092915050565b600082825260208201905092915050565b600081905092915050565b6000612f4a82613064565b9150612f5583613064565b9250827fffffffffffffffffffffffffffffffffffffffffffffffffffffffffffffffff03821115612f8a57612f8961318d565b5b828201905092915050565b6000612fa082613064565b9150612fab83613064565b925082612fbb57612fba6131bc565b5b828204905092915050565b6000612fd182613064565b9150612fdc83613064565b925082821015612fef57612fee61318d565b5b828203905092915050565b600061300582613044565b9050919050565b60008115159050919050565b60007fffffffff0000000000000000000000000000000000000000000000000000000082169050919050565b600073ffffffffffffffffffffffffffffffffffffffff82169050919050565b6000819050919050565b82818337600083830152505050565b60005b8381101561309b578082015181840152602081019050613080565b838111156130aa576000848401525b50505050565b600060028204905060018216806130c857607f821691505b602082108114156130dc576130db6131eb565b5b50919050565b6130eb82613249565b810181811067ffffffffffffffff8211171561310a5761310961321a565b5b80604052505050565b600061311e82613064565b91507fffffffffffffffffffffffffffffffffffffffffffffffffffffffffffffffff8214156131515761315061318d565b5b600182019050919050565b600061316782613064565b915061317283613064565b925082613182576131816131bc565b5b828206905092915050565b7f4e487b7100000000000000000000000000000000000000000000000000000000600052601160045260246000fd5b7f4e487b7100000000000000000000000000000000000000000000000000000000600052601260045260246000fd5b7f4e487b7100000000000000000000000000000000000000000000000000000000600052602260045260246000fd5b7f4e487b7100000000000000000000000000000000000000000000000000000000600052604160045260246000fd5b6000601f19601f8301169050919050565b7f455243373231456e756d657261626c653a206f776e657220696e646578206f7560008201527f74206f6620626f756e6473000000000000000000000000000000000000000000602082015250565b7f4552433732313a207472616e7366657220746f206e6f6e20455243373231526560008201527f63656976657220696d706c656d656e7465720000000000000000000000000000602082015250565b7f4f776e61626c653a206e6577206f776e657220697320746865207a65726f206160008201527f6464726573730000000000000000000000000000000000000000000000000000602082015250565b7f4552433732313a20746f6b656e20616c7265616479206d696e74656400000000600082015250565b7f4552433732313a207472616e7366657220746f20746865207a65726f2061646460008201527f7265737300000000000000000000000000000000000000000000000000000000602082015250565b7f4552433732313a20617070726f766520746f2063616c6c657200000000000000600082015250565b7f4552433732313a206f70657261746f7220717565727920666f72206e6f6e657860008201527f697374656e7420746f6b656e0000000000000000000000000000000000000000602082015250565b7f4552433732313a20617070726f76652063616c6c6572206973206e6f74206f7760008201527f6e6572206e6f7220617070726f76656420666f7220616c6c0000000000000000602082015250565b7f4552433732313a2062616c616e636520717565727920666f7220746865207a6560008201527f726f206164647265737300000000000000000000000000000000000000000000602082015250565b7f4552433732313a206f776e657220717565727920666f72206e6f6e657869737460008201527f656e7420746f6b656e0000000000000000000000000000000000000000000000602082015250565b7f45524337323155524953746f726167653a2055524920736574206f66206e6f6e60008201527f6578697374656e7420746f6b656e000000000000000000000000000000000000602082015250565b7f4552433732313a206d696e7420746f20746865207a65726f2061646472657373600082015250565b7f45524337323155524953746f726167653a2055524920717565727920666f722060008201527f6e6f6e6578697374656e7420746f6b656e000000000000000000000000000000602082015250565b7f4552433732313a20617070726f76656420717565727920666f72206e6f6e657860008201527f697374656e7420746f6b656e0000000000000000000000000000000000000000602082015250565b7f4f776e61626c653a2063616c6c6572206973206e6f7420746865206f776e6572600082015250565b7f4552433732313a207472616e73666572206f6620746f6b656e2074686174206960008201527f73206e6f74206f776e0000000000000000000000000000000000000000000000602082015250565b7f4552433732314d657461646174613a2055524920717565727920666f72206e6f60008201527f6e6578697374656e7420746f6b656e0000000000000000000000000000000000602082015250565b7f4552433732313a20617070726f76616c20746f2063757272656e74206f776e6560008201527f7200000000000000000000000000000000000000000000000000000000000000602082015250565b7f4552433732313a207472616e736665722063616c6c6572206973206e6f74206f60008201527f776e6572206e6f7220617070726f766564000000000000000000000000000000602082015250565b7f455243373231456e756d657261626c653a20676c6f62616c20696e646578206f60008201527f7574206f6620626f756e64730000000000000000000000000000000000000000602082015250565b6137f781612ffa565b811461380257600080fd5b50565b61380e8161300c565b811461381957600080fd5b50565b61382581613018565b811461383057600080fd5b50565b61383c81613064565b811461384757600080fd5b5056fea264697066735822122014998321e94a2da4cd58ca5714920db4c85ce8a9a0eece518a0cbff6a5cc557164736f6c63430008040033",
  "linkReferences": {},
  "deployedLinkReferences": {}
}