{
  "_format": "hh-sol-artifact-1",
  "contractName": "TradeableCashflow",
  "sourceName": "contracts/tradeableCashflow.sol",
  "abi": [
    {
      "inputs": [
        {
          "internalType": "address",
          "name": "owner",
          "type": "address"
        },
        {
          "internalType": "string",
          "name": "_name",
          "type": "string"
        },
        {
          "internalType": "string",
          "name": "_symbol",
          "type": "string"
        },
        {
          "internalType": "contract ISuperfluid",
          "name": "host",
          "type": "address"
        },
        {
          "internalType": "contract IConstantFlowAgreementV1",
          "name": "cfa",
          "type": "address"
        },
        {
          "internalType": "contract ISuperToken",
          "name": "acceptedToken",
          "type": "address"
        }
      ],
      "stateMutability": "nonpayable",
      "type": "constructor"
    },
    {
      "anonymous": false,
      "inputs": [
        {
          "indexed": true,
          "internalType": "address",
          "name": "owner",
          "type": "address"
        },
        {
          "indexed": true,
          "internalType": "address",
          "name": "approved",
          "type": "address"
        },
        {
          "indexed": true,
          "internalType": "uint256",
          "name": "tokenId",
          "type": "uint256"
        }
      ],
      "name": "Approval",
      "type": "event"
    },
    {
      "anonymous": false,
      "inputs": [
        {
          "indexed": true,
          "internalType": "address",
          "name": "owner",
          "type": "address"
        },
        {
          "indexed": true,
          "internalType": "address",
          "name": "operator",
          "type": "address"
        },
        {
          "indexed": false,
          "internalType": "bool",
          "name": "approved",
          "type": "bool"
        }
      ],
      "name": "ApprovalForAll",
      "type": "event"
    },
    {
      "anonymous": false,
      "inputs": [
        {
          "indexed": false,
          "internalType": "address",
          "name": "receiver",
          "type": "address"
        }
      ],
      "name": "ReceiverChanged",
      "type": "event"
    },
    {
      "anonymous": false,
      "inputs": [
        {
          "indexed": true,
          "internalType": "address",
          "name": "from",
          "type": "address"
        },
        {
          "indexed": true,
          "internalType": "address",
          "name": "to",
          "type": "address"
        },
        {
          "indexed": true,
          "internalType": "uint256",
          "name": "tokenId",
          "type": "uint256"
        }
      ],
      "name": "Transfer",
      "type": "event"
    },
    {
      "inputs": [
        {
          "internalType": "contract ISuperToken",
          "name": "_superToken",
          "type": "address"
        },
        {
          "internalType": "address",
          "name": "_agreementClass",
          "type": "address"
        },
        {
          "internalType": "bytes32",
          "name": "",
          "type": "bytes32"
        },
        {
          "internalType": "bytes",
          "name": "",
          "type": "bytes"
        },
        {
          "internalType": "bytes",
          "name": "",
          "type": "bytes"
        },
        {
          "internalType": "bytes",
          "name": "_ctx",
          "type": "bytes"
        }
      ],
      "name": "afterAgreementCreated",
      "outputs": [
        {
          "internalType": "bytes",
          "name": "newCtx",
          "type": "bytes"
        }
      ],
      "stateMutability": "nonpayable",
      "type": "function"
    },
    {
      "inputs": [
        {
          "internalType": "contract ISuperToken",
          "name": "_superToken",
          "type": "address"
        },
        {
          "internalType": "address",
          "name": "_agreementClass",
          "type": "address"
        },
        {
          "internalType": "bytes32",
          "name": "",
          "type": "bytes32"
        },
        {
          "internalType": "bytes",
          "name": "",
          "type": "bytes"
        },
        {
          "internalType": "bytes",
          "name": "",
          "type": "bytes"
        },
        {
          "internalType": "bytes",
          "name": "_ctx",
          "type": "bytes"
        }
      ],
      "name": "afterAgreementTerminated",
      "outputs": [
        {
          "internalType": "bytes",
          "name": "newCtx",
          "type": "bytes"
        }
      ],
      "stateMutability": "nonpayable",
      "type": "function"
    },
    {
      "inputs": [
        {
          "internalType": "contract ISuperToken",
          "name": "_superToken",
          "type": "address"
        },
        {
          "internalType": "address",
          "name": "_agreementClass",
          "type": "address"
        },
        {
          "internalType": "bytes32",
          "name": "",
          "type": "bytes32"
        },
        {
          "internalType": "bytes",
          "name": "",
          "type": "bytes"
        },
        {
          "internalType": "bytes",
          "name": "",
          "type": "bytes"
        },
        {
          "internalType": "bytes",
          "name": "_ctx",
          "type": "bytes"
        }
      ],
      "name": "afterAgreementUpdated",
      "outputs": [
        {
          "internalType": "bytes",
          "name": "newCtx",
          "type": "bytes"
        }
      ],
      "stateMutability": "nonpayable",
      "type": "function"
    },
    {
      "inputs": [
        {
          "internalType": "address",
          "name": "to",
          "type": "address"
        },
        {
          "internalType": "uint256",
          "name": "tokenId",
          "type": "uint256"
        }
      ],
      "name": "approve",
      "outputs": [],
      "stateMutability": "nonpayable",
      "type": "function"
    },
    {
      "inputs": [
        {
          "internalType": "address",
          "name": "owner",
          "type": "address"
        }
      ],
      "name": "balanceOf",
      "outputs": [
        {
          "internalType": "uint256",
          "name": "",
          "type": "uint256"
        }
      ],
      "stateMutability": "view",
      "type": "function"
    },
    {
      "inputs": [
        {
          "internalType": "contract ISuperToken",
          "name": "",
          "type": "address"
        },
        {
          "internalType": "address",
          "name": "",
          "type": "address"
        },
        {
          "internalType": "bytes32",
          "name": "",
          "type": "bytes32"
        },
        {
          "internalType": "bytes",
          "name": "",
          "type": "bytes"
        },
        {
          "internalType": "bytes",
          "name": "",
          "type": "bytes"
        }
      ],
      "name": "beforeAgreementCreated",
      "outputs": [
        {
          "internalType": "bytes",
          "name": "",
          "type": "bytes"
        }
      ],
      "stateMutability": "view",
      "type": "function"
    },
    {
      "inputs": [
        {
          "internalType": "contract ISuperToken",
          "name": "",
          "type": "address"
        },
        {
          "internalType": "address",
          "name": "",
          "type": "address"
        },
        {
          "internalType": "bytes32",
          "name": "",
          "type": "bytes32"
        },
        {
          "internalType": "bytes",
          "name": "",
          "type": "bytes"
        },
        {
          "internalType": "bytes",
          "name": "",
          "type": "bytes"
        }
      ],
      "name": "beforeAgreementTerminated",
      "outputs": [
        {
          "internalType": "bytes",
          "name": "",
          "type": "bytes"
        }
      ],
      "stateMutability": "view",
      "type": "function"
    },
    {
      "inputs": [
        {
          "internalType": "contract ISuperToken",
          "name": "",
          "type": "address"
        },
        {
          "internalType": "address",
          "name": "",
          "type": "address"
        },
        {
          "internalType": "bytes32",
          "name": "",
          "type": "bytes32"
        },
        {
          "internalType": "bytes",
          "name": "",
          "type": "bytes"
        },
        {
          "internalType": "bytes",
          "name": "",
          "type": "bytes"
        }
      ],
      "name": "beforeAgreementUpdated",
      "outputs": [
        {
          "internalType": "bytes",
          "name": "",
          "type": "bytes"
        }
      ],
      "stateMutability": "view",
      "type": "function"
    },
    {
      "inputs": [],
      "name": "currentReceiver",
      "outputs": [
        {
          "internalType": "uint256",
          "name": "startTime",
          "type": "uint256"
        },
        {
          "internalType": "address",
          "name": "receiver",
          "type": "address"
        },
        {
          "internalType": "int96",
          "name": "flowRate",
          "type": "int96"
        }
      ],
      "stateMutability": "view",
      "type": "function"
    },
    {
      "inputs": [
        {
          "internalType": "uint256",
          "name": "tokenId",
          "type": "uint256"
        }
      ],
      "name": "getApproved",
      "outputs": [
        {
          "internalType": "address",
          "name": "",
          "type": "address"
        }
      ],
      "stateMutability": "view",
      "type": "function"
    },
    {
      "inputs": [
        {
          "internalType": "address",
          "name": "owner",
          "type": "address"
        },
        {
          "internalType": "address",
          "name": "operator",
          "type": "address"
        }
      ],
      "name": "isApprovedForAll",
      "outputs": [
        {
          "internalType": "bool",
          "name": "",
          "type": "bool"
        }
      ],
      "stateMutability": "view",
      "type": "function"
    },
    {
      "inputs": [],
      "name": "name",
      "outputs": [
        {
          "internalType": "string",
          "name": "",
          "type": "string"
        }
      ],
      "stateMutability": "view",
      "type": "function"
    },
    {
      "inputs": [
        {
          "internalType": "uint256",
          "name": "tokenId",
          "type": "uint256"
        }
      ],
      "name": "ownerOf",
      "outputs": [
        {
          "internalType": "address",
          "name": "",
          "type": "address"
        }
      ],
      "stateMutability": "view",
      "type": "function"
    },
    {
      "inputs": [
        {
          "internalType": "address",
          "name": "from",
          "type": "address"
        },
        {
          "internalType": "address",
          "name": "to",
          "type": "address"
        },
        {
          "internalType": "uint256",
          "name": "tokenId",
          "type": "uint256"
        }
      ],
      "name": "safeTransferFrom",
      "outputs": [],
      "stateMutability": "nonpayable",
      "type": "function"
    },
    {
      "inputs": [
        {
          "internalType": "address",
          "name": "from",
          "type": "address"
        },
        {
          "internalType": "address",
          "name": "to",
          "type": "address"
        },
        {
          "internalType": "uint256",
          "name": "tokenId",
          "type": "uint256"
        },
        {
          "internalType": "bytes",
          "name": "_data",
          "type": "bytes"
        }
      ],
      "name": "safeTransferFrom",
      "outputs": [],
      "stateMutability": "nonpayable",
      "type": "function"
    },
    {
      "inputs": [
        {
          "internalType": "address",
          "name": "operator",
          "type": "address"
        },
        {
          "internalType": "bool",
          "name": "approved",
          "type": "bool"
        }
      ],
      "name": "setApprovalForAll",
      "outputs": [],
      "stateMutability": "nonpayable",
      "type": "function"
    },
    {
      "inputs": [
        {
          "internalType": "bytes4",
          "name": "interfaceId",
          "type": "bytes4"
        }
      ],
      "name": "supportsInterface",
      "outputs": [
        {
          "internalType": "bool",
          "name": "",
          "type": "bool"
        }
      ],
      "stateMutability": "view",
      "type": "function"
    },
    {
      "inputs": [],
      "name": "symbol",
      "outputs": [
        {
          "internalType": "string",
          "name": "",
          "type": "string"
        }
      ],
      "stateMutability": "view",
      "type": "function"
    },
    {
      "inputs": [
        {
          "internalType": "uint256",
          "name": "tokenId",
          "type": "uint256"
        }
      ],
      "name": "tokenURI",
      "outputs": [
        {
          "internalType": "string",
          "name": "",
          "type": "string"
        }
      ],
      "stateMutability": "view",
      "type": "function"
    },
    {
      "inputs": [
        {
          "internalType": "address",
          "name": "from",
          "type": "address"
        },
        {
          "internalType": "address",
          "name": "to",
          "type": "address"
        },
        {
          "internalType": "uint256",
          "name": "tokenId",
          "type": "uint256"
        }
      ],
      "name": "transferFrom",
      "outputs": [],
      "stateMutability": "nonpayable",
      "type": "function"
    }
  ],
  "bytecode": "0x60806040523480156200001157600080fd5b50604051620067d3380380620067d38339818101604052810190620000379190620011cb565b82828288888881600090805190602001906200005592919062000f96565b5080600190805190602001906200006e92919062000f96565b505050600073ffffffffffffffffffffffffffffffffffffffff168473ffffffffffffffffffffffffffffffffffffffff161415620000e4576040517f08c379a0000000000000000000000000000000000000000000000000000000008152600401620000db906200182a565b60405180910390fd5b600073ffffffffffffffffffffffffffffffffffffffff168373ffffffffffffffffffffffffffffffffffffffff16141562000157576040517f08c379a00000000000000000000000000000000000000000000000000000000081526004016200014e90620017e6565b60405180910390fd5b600073ffffffffffffffffffffffffffffffffffffffff168273ffffffffffffffffffffffffffffffffffffffff161415620001ca576040517f08c379a0000000000000000000000000000000000000000000000000000000008152600401620001c1906200175e565b60405180910390fd5b600073ffffffffffffffffffffffffffffffffffffffff168173ffffffffffffffffffffffffffffffffffffffff1614156200023d576040517f08c379a00000000000000000000000000000000000000000000000000000000081526004016200023490620017a2565b60405180910390fd5b8373ffffffffffffffffffffffffffffffffffffffff16633ca3ad4e826040518263ffffffff1660e01b81526004016200027891906200162f565b60206040518083038186803b1580156200029157600080fd5b505afa158015620002a6573d6000803e3d6000fd5b505050506040513d601f19601f82011682018060405250810190620002cc919062001293565b156200030f576040517f08c379a000000000000000000000000000000000000000000000000000000000815260040162000306906200184c565b60405180910390fd5b83600660006101000a81548173ffffffffffffffffffffffffffffffffffffffff021916908373ffffffffffffffffffffffffffffffffffffffff16021790555082600760006101000a81548173ffffffffffffffffffffffffffffffffffffffff021916908373ffffffffffffffffffffffffffffffffffffffff16021790555081600860006101000a81548173ffffffffffffffffffffffffffffffffffffffff021916908373ffffffffffffffffffffffffffffffffffffffff16021790555080600960006101000a81548173ffffffffffffffffffffffffffffffffffffffff021916908373ffffffffffffffffffffffffffffffffffffffff160217905550600064100000000064040000000064010000000060011717179050600660009054906101000a900473ffffffffffffffffffffffffffffffffffffffff1673ffffffffffffffffffffffffffffffffffffffff1663ad3915c8826040518263ffffffff1660e01b81526004016200048b919062001890565b600060405180830381600087803b158015620004a657600080fd5b505af1158015620004bb573d6000803e3d6000fd5b505050505050505050620004d7866001620004e360201b60201c565b50505050505062001e8d565b600073ffffffffffffffffffffffffffffffffffffffff168273ffffffffffffffffffffffffffffffffffffffff16141562000556576040517f08c379a00000000000000000000000000000000000000000000000000000000081526004016200054d906200186e565b60405180910390fd5b6200056781620006c960201b60201c565b15620005aa576040517f08c379a0000000000000000000000000000000000000000000000000000000008152600401620005a19062001780565b60405180910390fd5b620005be600083836200073560201b60201c565b6001600360008473ffffffffffffffffffffffffffffffffffffffff1673ffffffffffffffffffffffffffffffffffffffff16815260200190815260200160002060008282546200061091906200196f565b92505081905550816002600083815260200190815260200160002060006101000a81548173ffffffffffffffffffffffffffffffffffffffff021916908373ffffffffffffffffffffffffffffffffffffffff160217905550808273ffffffffffffffffffffffffffffffffffffffff16600073ffffffffffffffffffffffffffffffffffffffff167fddf252ad1be2c89b69c2b068fc378daa952ba7f163c4a11628f55a4df523b3ef60405160405180910390a45050565b60008073ffffffffffffffffffffffffffffffffffffffff166002600084815260200190815260200160002060009054906101000a900473ffffffffffffffffffffffffffffffffffffffff1673ffffffffffffffffffffffffffffffffffffffff1614159050919050565b62000746826200074b60201b60201c565b505050565b600073ffffffffffffffffffffffffffffffffffffffff168173ffffffffffffffffffffffffffffffffffffffff161415620007be576040517f08c379a0000000000000000000000000000000000000000000000000000000008152600401620007b590620017c4565b60405180910390fd5b600660009054906101000a900473ffffffffffffffffffffffffffffffffffffffff1673ffffffffffffffffffffffffffffffffffffffff16633ca3ad4e826040518263ffffffff1660e01b81526004016200081b91906200162f565b60206040518083038186803b1580156200083457600080fd5b505afa15801562000849573d6000803e3d6000fd5b505050506040513d601f19601f820116820180604052508101906200086f919062001293565b15620008b2576040517f08c379a0000000000000000000000000000000000000000000000000000000008152600401620008a99062001808565b60405180910390fd5b600960009054906101000a900473ffffffffffffffffffffffffffffffffffffffff1673ffffffffffffffffffffffffffffffffffffffff168173ffffffffffffffffffffffffffffffffffffffff1614156200090f5762000f93565b6000600760009054906101000a900473ffffffffffffffffffffffffffffffffffffffff1673ffffffffffffffffffffffffffffffffffffffff1663e6a1e888600860009054906101000a900473ffffffffffffffffffffffffffffffffffffffff1630600960009054906101000a900473ffffffffffffffffffffffffffffffffffffffff166040518463ffffffff1660e01b8152600401620009b69392919062001679565b60806040518083038186803b158015620009cf57600080fd5b505afa158015620009e4573d6000803e3d6000fd5b505050506040513d601f19601f8201168201806040525081019062000a0a919062001330565b5050915050600081600b0b131562000ef557600660009054906101000a900473ffffffffffffffffffffffffffffffffffffffff1673ffffffffffffffffffffffffffffffffffffffff166339255d5b600760009054906101000a900473ffffffffffffffffffffffffffffffffffffffff1663b4b333c660e01b600860009054906101000a900473ffffffffffffffffffffffffffffffffffffffff1630600960009054906101000a900473ffffffffffffffffffffffffffffffffffffffff16600067ffffffffffffffff81111562000b0e577f4e487b7100000000000000000000000000000000000000000000000000000000600052604160045260246000fd5b6040519080825280601f01601f19166020018201604052801562000b415781602001600182028036833780820191505090505b5060405160240162000b579493929190620016b6565b604051602081830303815290604052907bffffffffffffffffffffffffffffffffffffffffffffffffffffffff19166020820180517bffffffffffffffffffffffffffffffffffffffffffffffffffffffff83818316178352505050506040518363ffffffff1660e01b815260040162000bd3929190620015e6565b600060405180830381600087803b15801562000bee57600080fd5b505af115801562000c03573d6000803e3d6000fd5b505050506040513d6000823e3d601f19601f8201168201806040525081019062000c2e9190620012bf565b50600660009054906101000a900473ffffffffffffffffffffffffffffffffffffffff1673ffffffffffffffffffffffffffffffffffffffff166339255d5b600760009054906101000a900473ffffffffffffffffffffffffffffffffffffffff166362fc305e60e01b600860009054906101000a900473ffffffffffffffffffffffffffffffffffffffff1686600760009054906101000a900473ffffffffffffffffffffffffffffffffffffffff1673ffffffffffffffffffffffffffffffffffffffff1663e8e7e2d1600860009054906101000a900473ffffffffffffffffffffffffffffffffffffffff16306040518363ffffffff1660e01b815260040162000d3d9291906200164c565b60206040518083038186803b15801562000d5657600080fd5b505afa15801562000d6b573d6000803e3d6000fd5b505050506040513d601f19601f8201168201806040525081019062000d91919062001304565b600067ffffffffffffffff81111562000dd3577f4e487b7100000000000000000000000000000000000000000000000000000000600052604160045260246000fd5b6040519080825280601f01601f19166020018201604052801562000e065781602001600182028036833780820191505090505b5060405160240162000e1c94939291906200170a565b604051602081830303815290604052907bffffffffffffffffffffffffffffffffffffffffffffffffffffffff19166020820180517bffffffffffffffffffffffffffffffffffffffffffffffffffffffff83818316178352505050506040518363ffffffff1660e01b815260040162000e98929190620015e6565b600060405180830381600087803b15801562000eb357600080fd5b505af115801562000ec8573d6000803e3d6000fd5b505050506040513d6000823e3d601f19601f8201168201806040525081019062000ef39190620012bf565b505b81600960006101000a81548173ffffffffffffffffffffffffffffffffffffffff021916908373ffffffffffffffffffffffffffffffffffffffff1602179055507f7dfb1d59db37a3fd2e15e796c189dcab714cdbb18650d68a1de58f8fa60718c9600960009054906101000a900473ffffffffffffffffffffffffffffffffffffffff1660405162000f899190620015c9565b60405180910390a1505b50565b82805462000fa49062001b0d565b90600052602060002090601f01602090048101928262000fc8576000855562001014565b82601f1062000fe357805160ff191683800117855562001014565b8280016001018555821562001014579182015b828111156200101357825182559160200191906001019062000ff6565b5b50905062001023919062001027565b5090565b5b808211156200104257600081600090555060010162001028565b5090565b60006200105d6200105784620018d6565b620018ad565b9050828152602081018484840111156200107657600080fd5b6200108384828562001ad7565b509392505050565b6000620010a26200109c846200190c565b620018ad565b905082815260208101848484011115620010bb57600080fd5b620010c884828562001ad7565b509392505050565b600081519050620010e18162001dd7565b92915050565b600081519050620010f88162001df1565b92915050565b600082601f8301126200111057600080fd5b81516200112284826020860162001046565b91505092915050565b6000815190506200113c8162001e0b565b92915050565b600081519050620011538162001e25565b92915050565b6000815190506200116a8162001e3f565b92915050565b600081519050620011818162001e59565b92915050565b600082601f8301126200119957600080fd5b8151620011ab8482602086016200108b565b91505092915050565b600081519050620011c58162001e73565b92915050565b60008060008060008060c08789031215620011e557600080fd5b6000620011f589828a01620010d0565b965050602087015167ffffffffffffffff8111156200121357600080fd5b6200122189828a0162001187565b955050604087015167ffffffffffffffff8111156200123f57600080fd5b6200124d89828a0162001187565b94505060606200126089828a0162001159565b93505060806200127389828a016200112b565b92505060a06200128689828a0162001142565b9150509295509295509295565b600060208284031215620012a657600080fd5b6000620012b684828501620010e7565b91505092915050565b600060208284031215620012d257600080fd5b600082015167ffffffffffffffff811115620012ed57600080fd5b620012fb84828501620010fe565b91505092915050565b6000602082840312156200131757600080fd5b6000620013278482850162001170565b91505092915050565b600080600080608085870312156200134757600080fd5b60006200135787828801620011b4565b94505060206200136a8782880162001170565b93505060406200137d87828801620011b4565b92505060606200139087828801620011b4565b91505092959194509250565b620013a781620019cc565b82525050565b6000620013ba8262001942565b620013c681856200194d565b9350620013d881856020860162001ad7565b620013e38162001c06565b840191505092915050565b620013f98162001a5f565b82525050565b6200140a8162001a87565b82525050565b6200141b8162001aaf565b82525050565b6200142c8162001a28565b82525050565b600062001441601d836200195e565b91506200144e8262001c17565b602082019050919050565b600062001468601c836200195e565b9150620014758262001c40565b602082019050919050565b60006200148f6018836200195e565b91506200149c8262001c69565b602082019050919050565b6000620014b66002836200194d565b9150620014c38262001c92565b602082019050919050565b6000620014dd601c836200195e565b9150620014ea8262001cbb565b602082019050919050565b6000620015046013836200195e565b9150620015118262001ce4565b602082019050919050565b60006200152b6022836200195e565b9150620015388262001d0d565b604082019050919050565b6000620015526014836200195e565b91506200155f8262001d5c565b602082019050919050565b6000620015796012836200195e565b9150620015868262001d85565b602082019050919050565b6000620015a06020836200195e565b9150620015ad8262001dae565b602082019050919050565b620015c38162001a55565b82525050565b6000602082019050620015e060008301846200139c565b92915050565b6000606082019050620015fd6000830185620013ee565b8181036020830152620016118184620013ad565b905081810360408301526200162681620014a7565b90509392505050565b6000602082019050620016466000830184620013ff565b92915050565b600060408201905062001663600083018562001410565b6200167260208301846200139c565b9392505050565b600060608201905062001690600083018662001410565b6200169f60208301856200139c565b620016ae60408301846200139c565b949350505050565b6000608082019050620016cd600083018762001410565b620016dc60208301866200139c565b620016eb60408301856200139c565b8181036060830152620016ff8184620013ad565b905095945050505050565b600060808201905062001721600083018762001410565b6200173060208301866200139c565b6200173f604083018562001421565b8181036060830152620017538184620013ad565b905095945050505050565b60006020820190508181036000830152620017798162001432565b9050919050565b600060208201905081810360008301526200179b8162001459565b9050919050565b60006020820190508181036000830152620017bd8162001480565b9050919050565b60006020820190508181036000830152620017df81620014ce565b9050919050565b600060208201905081810360008301526200180181620014f5565b9050919050565b6000602082019050818103600083015262001823816200151c565b9050919050565b60006020820190508181036000830152620018458162001543565b9050919050565b6000602082019050818103600083015262001867816200156a565b9050919050565b60006020820190508181036000830152620018898162001591565b9050919050565b6000602082019050620018a76000830184620015b8565b92915050565b6000620018b9620018cc565b9050620018c7828262001b43565b919050565b6000604051905090565b600067ffffffffffffffff821115620018f457620018f362001bd7565b5b620018ff8262001c06565b9050602081019050919050565b600067ffffffffffffffff8211156200192a576200192962001bd7565b5b620019358262001c06565b9050602081019050919050565b600081519050919050565b600082825260208201905092915050565b600082825260208201905092915050565b60006200197c8262001a55565b9150620019898362001a55565b9250827fffffffffffffffffffffffffffffffffffffffffffffffffffffffffffffffff03821115620019c157620019c062001b79565b5b828201905092915050565b6000620019d98262001a35565b9050919050565b60008115159050919050565b6000620019f982620019cc565b9050919050565b600062001a0d82620019cc565b9050919050565b600062001a2182620019cc565b9050919050565b600081600b0b9050919050565b600073ffffffffffffffffffffffffffffffffffffffff82169050919050565b6000819050919050565b600062001a6c8262001a73565b9050919050565b600062001a808262001a35565b9050919050565b600062001a948262001a9b565b9050919050565b600062001aa88262001a35565b9050919050565b600062001abc8262001ac3565b9050919050565b600062001ad08262001a35565b9050919050565b60005b8381101562001af757808201518184015260208101905062001ada565b8381111562001b07576000848401525b50505050565b6000600282049050600182168062001b2657607f821691505b6020821081141562001b3d5762001b3c62001ba8565b5b50919050565b62001b4e8262001c06565b810181811067ffffffffffffffff8211171562001b705762001b6f62001bd7565b5b80604052505050565b7f4e487b7100000000000000000000000000000000000000000000000000000000600052601160045260246000fd5b7f4e487b7100000000000000000000000000000000000000000000000000000000600052602260045260246000fd5b7f4e487b7100000000000000000000000000000000000000000000000000000000600052604160045260246000fd5b6000601f19601f8301169050919050565b7f6163636570746564546f6b656e206973207a65726f2061646472657373000000600082015250565b7f4552433732313a20746f6b656e20616c7265616479206d696e74656400000000600082015250565b7f7265636569766572206973207a65726f20616464726573730000000000000000600082015250565b7f3078000000000000000000000000000000000000000000000000000000000000600082015250565b7f4e6577207265636569766572206973207a65726f206164647265737300000000600082015250565b7f636661206973207a65726f206164647265737300000000000000000000000000600082015250565b7f4e65772072656365697665722063616e206e6f7420626520612073757065724160008201527f7070000000000000000000000000000000000000000000000000000000000000602082015250565b7f686f7374206973207a65726f2061646472657373000000000000000000000000600082015250565b7f726563656976657220697320616e206170700000000000000000000000000000600082015250565b7f4552433732313a206d696e7420746f20746865207a65726f2061646472657373600082015250565b62001de281620019cc565b811462001dee57600080fd5b50565b62001dfc81620019e0565b811462001e0857600080fd5b50565b62001e1681620019ec565b811462001e2257600080fd5b50565b62001e308162001a00565b811462001e3c57600080fd5b50565b62001e4a8162001a14565b811462001e5657600080fd5b50565b62001e648162001a28565b811462001e7057600080fd5b50565b62001e7e8162001a55565b811462001e8a57600080fd5b50565b6149368062001e9d6000396000f3fe608060405234801561001057600080fd5b506004361061012c5760003560e01c80635f9e7d77116100ad578063a22cb46511610071578063a22cb46514610391578063b88d4fde146103ad578063c87b56dd146103c9578063d86ed3e5146103f9578063e985e9c5146104295761012c565b80635f9e7d77146102b35780636352211e146102e357806370a0823114610313578063884d1f401461034357806395d89b41146103735761012c565b806323b872dd116100f457806323b872dd146101fb57806328d2bf941461021757806330d9c9151461023757806342842e0e1461026757806353c11f99146102835761012c565b806301ffc9a71461013157806306fdde0314610161578063081812fc1461017f578063095ea7b3146101af578063230dbd29146101cb575b600080fd5b61014b6004803603810190610146919061311b565b610459565b60405161015891906138d4565b60405180910390f35b61016961053b565b6040516101769190613abf565b60405180910390f35b610199600480360381019061019491906133d2565b6105cd565b6040516101a6919061386d565b60405180910390f35b6101c960048036038101906101c4919061308d565b610652565b005b6101e560048036038101906101e091906132ca565b61076a565b6040516101f291906138ef565b60405180910390f35b61021560048036038101906102109190612f87565b6108a9565b005b61021f610909565b60405161022e93929190613d7c565b60405180910390f35b610251600480360381019061024c919061321a565b610a8c565b60405161025e91906138ef565b60405180910390f35b610281600480360381019061027c9190612f87565b610ac9565b005b61029d600480360381019061029891906132ca565b610ae9565b6040516102aa91906138ef565b60405180910390f35b6102cd60048036038101906102c8919061321a565b610c01565b6040516102da91906138ef565b60405180910390f35b6102fd60048036038101906102f891906133d2565b610c3e565b60405161030a919061386d565b60405180910390f35b61032d60048036038101906103289190612f22565b610cf0565b60405161033a9190613d61565b60405180910390f35b61035d6004803603810190610358919061321a565b610da8565b60405161036a91906138ef565b60405180910390f35b61037b610de5565b6040516103889190613abf565b60405180910390f35b6103ab60048036038101906103a69190613051565b610e77565b005b6103c760048036038101906103c29190612fd6565b610e8d565b005b6103e360048036038101906103de91906133d2565b610eef565b6040516103f09190613abf565b60405180910390f35b610413600480360381019061040e91906132ca565b610f96565b60405161042091906138ef565b60405180910390f35b610443600480360381019061043e9190612f4b565b6110d5565b60405161045091906138d4565b60405180910390f35b60007f80ac58cd000000000000000000000000000000000000000000000000000000007bffffffffffffffffffffffffffffffffffffffffffffffffffffffff1916827bffffffffffffffffffffffffffffffffffffffffffffffffffffffff1916148061052457507f5b5e139f000000000000000000000000000000000000000000000000000000007bffffffffffffffffffffffffffffffffffffffffffffffffffffffff1916827bffffffffffffffffffffffffffffffffffffffffffffffffffffffff1916145b80610534575061053382611169565b5b9050919050565b60606000805461054a906140d2565b80601f0160208091040260200160405190810160405280929190818152602001828054610576906140d2565b80156105c35780601f10610598576101008083540402835291602001916105c3565b820191906000526020600020905b8154815290600101906020018083116105a657829003601f168201915b5050505050905090565b60006105d8826111d3565b610617576040517f08c379a000000000000000000000000000000000000000000000000000000000815260040161060e90613c81565b60405180910390fd5b6004600083815260200190815260200160002060009054906101000a900473ffffffffffffffffffffffffffffffffffffffff169050919050565b600061065d82610c3e565b90508073ffffffffffffffffffffffffffffffffffffffff168373ffffffffffffffffffffffffffffffffffffffff1614156106ce576040517f08c379a00000000000000000000000000000000000000000000000000000000081526004016106c590613ce1565b60405180910390fd5b8073ffffffffffffffffffffffffffffffffffffffff166106ed61123f565b73ffffffffffffffffffffffffffffffffffffffff16148061071c575061071b8161071661123f565b6110d5565b5b61075b576040517f08c379a000000000000000000000000000000000000000000000000000000000815260040161075290613c01565b60405180910390fd5b6107658383611247565b505050565b6060898961077782611300565b6107b6576040517f08c379a00000000000000000000000000000000000000000000000000000000081526004016107ad90613b21565b60405180910390fd5b6107bf8161135a565b6107fe576040517f08c379a00000000000000000000000000000000000000000000000000000000081526004016107f590613ae1565b60405180910390fd5b600660009054906101000a900473ffffffffffffffffffffffffffffffffffffffff1673ffffffffffffffffffffffffffffffffffffffff163373ffffffffffffffffffffffffffffffffffffffff161461088e576040517f08c379a000000000000000000000000000000000000000000000000000000000815260040161088590613b61565b60405180910390fd5b6108988585611403565b925050509998505050505050505050565b6108ba6108b461123f565b82611c88565b6108f9576040517f08c379a00000000000000000000000000000000000000000000000000000000081526004016108f090613d21565b60405180910390fd5b610904838383611d66565b505050565b60008060008073ffffffffffffffffffffffffffffffffffffffff16600960009054906101000a900473ffffffffffffffffffffffffffffffffffffffff1673ffffffffffffffffffffffffffffffffffffffff1614610a8757600760009054906101000a900473ffffffffffffffffffffffffffffffffffffffff1673ffffffffffffffffffffffffffffffffffffffff1663e6a1e888600860009054906101000a900473ffffffffffffffffffffffffffffffffffffffff1630600960009054906101000a900473ffffffffffffffffffffffffffffffffffffffff166040518463ffffffff1660e01b8152600401610a06939291906139f0565b60806040518083038186803b158015610a1e57600080fd5b505afa158015610a32573d6000803e3d6000fd5b505050506040513d601f19601f82011682018060405250810190610a5691906133fb565b9050508092508194505050600960009054906101000a900473ffffffffffffffffffffffffffffffffffffffff1691505b909192565b60606040517f08c379a0000000000000000000000000000000000000000000000000000000008152600401610ac090613d41565b60405180910390fd5b610ae483838360405180602001604052806000815250610e8d565b505050565b6060600660009054906101000a900473ffffffffffffffffffffffffffffffffffffffff1673ffffffffffffffffffffffffffffffffffffffff163373ffffffffffffffffffffffffffffffffffffffff1614610b7b576040517f08c379a0000000000000000000000000000000000000000000000000000000008152600401610b7290613b61565b60405180910390fd5b610b848a611300565b1580610b965750610b948961135a565b155b15610be75782828080601f016020809104026020016040519081016040528093929190818152602001838380828437600081840152601f19601f820116905080830192505050505050509050610bf4565b610bf18383611403565b90505b9998505050505050505050565b60606040517f08c379a0000000000000000000000000000000000000000000000000000000008152600401610c3590613b41565b60405180910390fd5b6000806002600084815260200190815260200160002060009054906101000a900473ffffffffffffffffffffffffffffffffffffffff169050600073ffffffffffffffffffffffffffffffffffffffff168173ffffffffffffffffffffffffffffffffffffffff161415610ce7576040517f08c379a0000000000000000000000000000000000000000000000000000000008152600401610cde90613c41565b60405180910390fd5b80915050919050565b60008073ffffffffffffffffffffffffffffffffffffffff168273ffffffffffffffffffffffffffffffffffffffff161415610d61576040517f08c379a0000000000000000000000000000000000000000000000000000000008152600401610d5890613c21565b60405180910390fd5b600360008373ffffffffffffffffffffffffffffffffffffffff1673ffffffffffffffffffffffffffffffffffffffff168152602001908152602001600020549050919050565b60606040517f08c379a0000000000000000000000000000000000000000000000000000000008152600401610ddc90613d01565b60405180910390fd5b606060018054610df4906140d2565b80601f0160208091040260200160405190810160405280929190818152602001828054610e20906140d2565b8015610e6d5780601f10610e4257610100808354040283529160200191610e6d565b820191906000526020600020905b815481529060010190602001808311610e5057829003601f168201915b5050505050905090565b610e89610e8261123f565b8383611fc2565b5050565b610e9e610e9861123f565b83611c88565b610edd576040517f08c379a0000000000000000000000000000000000000000000000000000000008152600401610ed490613d21565b60405180910390fd5b610ee98484848461212f565b50505050565b6060610efa826111d3565b610f39576040517f08c379a0000000000000000000000000000000000000000000000000000000008152600401610f3090613cc1565b60405180910390fd5b6000610f4361218b565b90506000815111610f635760405180602001604052806000815250610f8e565b80610f6d846121a2565b604051602001610f7e929190613849565b6040516020818303038152906040525b915050919050565b60608989610fa382611300565b610fe2576040517f08c379a0000000000000000000000000000000000000000000000000000000008152600401610fd990613b21565b60405180910390fd5b610feb8161135a565b61102a576040517f08c379a000000000000000000000000000000000000000000000000000000000815260040161102190613ae1565b60405180910390fd5b600660009054906101000a900473ffffffffffffffffffffffffffffffffffffffff1673ffffffffffffffffffffffffffffffffffffffff163373ffffffffffffffffffffffffffffffffffffffff16146110ba576040517f08c379a00000000000000000000000000000000000000000000000000000000081526004016110b190613b61565b60405180910390fd5b6110c48585611403565b925050509998505050505050505050565b6000600560008473ffffffffffffffffffffffffffffffffffffffff1673ffffffffffffffffffffffffffffffffffffffff16815260200190815260200160002060008373ffffffffffffffffffffffffffffffffffffffff1673ffffffffffffffffffffffffffffffffffffffff16815260200190815260200160002060009054906101000a900460ff16905092915050565b60007f01ffc9a7000000000000000000000000000000000000000000000000000000007bffffffffffffffffffffffffffffffffffffffffffffffffffffffff1916827bffffffffffffffffffffffffffffffffffffffffffffffffffffffff1916149050919050565b60008073ffffffffffffffffffffffffffffffffffffffff166002600084815260200190815260200160002060009054906101000a900473ffffffffffffffffffffffffffffffffffffffff1673ffffffffffffffffffffffffffffffffffffffff1614159050919050565b600033905090565b816004600083815260200190815260200160002060006101000a81548173ffffffffffffffffffffffffffffffffffffffff021916908373ffffffffffffffffffffffffffffffffffffffff160217905550808273ffffffffffffffffffffffffffffffffffffffff166112ba83610c3e565b73ffffffffffffffffffffffffffffffffffffffff167f8c5be1e5ebec7d5bd14f71427d1e84f3dd0314c0f7b2291e5b200ac8c7c3b92560405160405180910390a45050565b6000600860009054906101000a900473ffffffffffffffffffffffffffffffffffffffff1673ffffffffffffffffffffffffffffffffffffffff168273ffffffffffffffffffffffffffffffffffffffff16149050919050565b60007fa9214cc96615e0085d3bb077758db69497dc2dce3b2b1e97bc93c3d18d83efd38273ffffffffffffffffffffffffffffffffffffffff16637730599e6040518163ffffffff1660e01b815260040160206040518083038186803b1580156113c357600080fd5b505afa1580156113d7573d6000803e3d6000fd5b505050506040513d601f19601f820116820180604052508101906113fb91906130f2565b149050919050565b606082828080601f016020809104026020016040519081016040528093929190818152602001838380828437600081840152601f19601f8201169050808301925050505050505090506000600760009054906101000a900473ffffffffffffffffffffffffffffffffffffffff1673ffffffffffffffffffffffffffffffffffffffff1663e8e7e2d1600860009054906101000a900473ffffffffffffffffffffffffffffffffffffffff16306040518363ffffffff1660e01b81526004016114cd9291906139c7565b60206040518083038186803b1580156114e557600080fd5b505afa1580156114f9573d6000803e3d6000fd5b505050506040513d601f19601f8201168201806040525081019061151d91906133a9565b90506000600760009054906101000a900473ffffffffffffffffffffffffffffffffffffffff1673ffffffffffffffffffffffffffffffffffffffff1663e6a1e888600860009054906101000a900473ffffffffffffffffffffffffffffffffffffffff1630600960009054906101000a900473ffffffffffffffffffffffffffffffffffffffff166040518463ffffffff1660e01b81526004016115c4939291906139f0565b60806040518083038186803b1580156115dc57600080fd5b505afa1580156115f0573d6000803e3d6000fd5b505050506040513d601f19601f8201168201806040525081019061161491906133fb565b5050915050600081836116279190613e4c565b90506000600b0b81600b0b141561184c57600660009054906101000a900473ffffffffffffffffffffffffffffffffffffffff1673ffffffffffffffffffffffffffffffffffffffff16634329d293600760009054906101000a900473ffffffffffffffffffffffffffffffffffffffff1663b4b333c660e01b600860009054906101000a900473ffffffffffffffffffffffffffffffffffffffff1630600960009054906101000a900473ffffffffffffffffffffffffffffffffffffffff16600067ffffffffffffffff811115611729577f4e487b7100000000000000000000000000000000000000000000000000000000600052604160045260246000fd5b6040519080825280601f01601f19166020018201604052801561175b5781602001600182028036833780820191505090505b5060405160240161176f9493929190613a27565b604051602081830303815290604052907bffffffffffffffffffffffffffffffffffffffffffffffffffffffff19166020820180517bffffffffffffffffffffffffffffffffffffffffffffffffffffffff8381831617835250505050876040518463ffffffff1660e01b81526004016117eb93929190613954565b600060405180830381600087803b15801561180557600080fd5b505af1158015611819573d6000803e3d6000fd5b505050506040513d6000823e3d601f19601f8201168201806040525081019061184291906131ae565b5080945050611c7f565b6000600b0b82600b0b14611a6e57600660009054906101000a900473ffffffffffffffffffffffffffffffffffffffff1673ffffffffffffffffffffffffffffffffffffffff16634329d293600760009054906101000a900473ffffffffffffffffffffffffffffffffffffffff166350209a6260e01b600860009054906101000a900473ffffffffffffffffffffffffffffffffffffffff16600960009054906101000a900473ffffffffffffffffffffffffffffffffffffffff1686600067ffffffffffffffff81111561194b577f4e487b7100000000000000000000000000000000000000000000000000000000600052604160045260246000fd5b6040519080825280601f01601f19166020018201604052801561197d5781602001600182028036833780820191505090505b506040516024016119919493929190613a73565b604051602081830303815290604052907bffffffffffffffffffffffffffffffffffffffffffffffffffffffff19166020820180517bffffffffffffffffffffffffffffffffffffffffffffffffffffffff8381831617835250505050876040518463ffffffff1660e01b8152600401611a0d93929190613954565b600060405180830381600087803b158015611a2757600080fd5b505af1158015611a3b573d6000803e3d6000fd5b505050506040513d6000823e3d601f19601f82011682018060405250810190611a6491906131ae565b5080945050611c7e565b600660009054906101000a900473ffffffffffffffffffffffffffffffffffffffff1673ffffffffffffffffffffffffffffffffffffffff16634329d293600760009054906101000a900473ffffffffffffffffffffffffffffffffffffffff166362fc305e60e01b600860009054906101000a900473ffffffffffffffffffffffffffffffffffffffff16600960009054906101000a900473ffffffffffffffffffffffffffffffffffffffff1686600067ffffffffffffffff811115611b5f577f4e487b7100000000000000000000000000000000000000000000000000000000600052604160045260246000fd5b6040519080825280601f01601f191660200182016040528015611b915781602001600182028036833780820191505090505b50604051602401611ba59493929190613a73565b604051602081830303815290604052907bffffffffffffffffffffffffffffffffffffffffffffffffffffffff19166020820180517bffffffffffffffffffffffffffffffffffffffffffffffffffffffff8381831617835250505050876040518463ffffffff1660e01b8152600401611c2193929190613954565b600060405180830381600087803b158015611c3b57600080fd5b505af1158015611c4f573d6000803e3d6000fd5b505050506040513d6000823e3d601f19601f82011682018060405250810190611c7891906131ae565b50809450505b5b50505092915050565b6000611c93826111d3565b611cd2576040517f08c379a0000000000000000000000000000000000000000000000000000000008152600401611cc990613be1565b60405180910390fd5b6000611cdd83610c3e565b90508073ffffffffffffffffffffffffffffffffffffffff168473ffffffffffffffffffffffffffffffffffffffff161480611d4c57508373ffffffffffffffffffffffffffffffffffffffff16611d34846105cd565b73ffffffffffffffffffffffffffffffffffffffff16145b80611d5d5750611d5c81856110d5565b5b91505092915050565b8273ffffffffffffffffffffffffffffffffffffffff16611d8682610c3e565b73ffffffffffffffffffffffffffffffffffffffff1614611ddc576040517f08c379a0000000000000000000000000000000000000000000000000000000008152600401611dd390613ca1565b60405180910390fd5b600073ffffffffffffffffffffffffffffffffffffffff168273ffffffffffffffffffffffffffffffffffffffff161415611e4c576040517f08c379a0000000000000000000000000000000000000000000000000000000008152600401611e4390613b81565b60405180910390fd5b611e5783838361234f565b611e62600082611247565b6001600360008573ffffffffffffffffffffffffffffffffffffffff1673ffffffffffffffffffffffffffffffffffffffff1681526020019081526020016000206000828254611eb29190613f53565b925050819055506001600360008473ffffffffffffffffffffffffffffffffffffffff1673ffffffffffffffffffffffffffffffffffffffff1681526020019081526020016000206000828254611f099190613ecc565b92505081905550816002600083815260200190815260200160002060006101000a81548173ffffffffffffffffffffffffffffffffffffffff021916908373ffffffffffffffffffffffffffffffffffffffff160217905550808273ffffffffffffffffffffffffffffffffffffffff168473ffffffffffffffffffffffffffffffffffffffff167fddf252ad1be2c89b69c2b068fc378daa952ba7f163c4a11628f55a4df523b3ef60405160405180910390a4505050565b8173ffffffffffffffffffffffffffffffffffffffff168373ffffffffffffffffffffffffffffffffffffffff161415612031576040517f08c379a000000000000000000000000000000000000000000000000000000000815260040161202890613ba1565b60405180910390fd5b80600560008573ffffffffffffffffffffffffffffffffffffffff1673ffffffffffffffffffffffffffffffffffffffff16815260200190815260200160002060008473ffffffffffffffffffffffffffffffffffffffff1673ffffffffffffffffffffffffffffffffffffffff16815260200190815260200160002060006101000a81548160ff0219169083151502179055508173ffffffffffffffffffffffffffffffffffffffff168373ffffffffffffffffffffffffffffffffffffffff167f17307eab39ab6107e8899845ad3d59bd9653f200f220920489ca2b5937696c318360405161212291906138d4565b60405180910390a3505050565b61213a848484611d66565b6121468484848461235d565b612185576040517f08c379a000000000000000000000000000000000000000000000000000000000815260040161217c90613b01565b60405180910390fd5b50505050565b606060405180602001604052806000815250905090565b606060008214156121ea576040518060400160405280600181526020017f3000000000000000000000000000000000000000000000000000000000000000815250905061234a565b600082905060005b6000821461221c57808061220590614135565b915050600a826122159190613f22565b91506121f2565b60008167ffffffffffffffff81111561225e577f4e487b7100000000000000000000000000000000000000000000000000000000600052604160045260246000fd5b6040519080825280601f01601f1916602001820160405280156122905781602001600182028036833780820191505090505b5090505b60008514612343576001826122a99190613f53565b9150600a856122b8919061417e565b60306122c49190613ecc565b60f81b818381518110612300577f4e487b7100000000000000000000000000000000000000000000000000000000600052603260045260246000fd5b60200101907effffffffffffffffffffffffffffffffffffffffffffffffffffffffffffff1916908160001a905350600a8561233c9190613f22565b9450612294565b8093505050505b919050565b612358826124f4565b505050565b600061237e8473ffffffffffffffffffffffffffffffffffffffff16612d0e565b156124e7578373ffffffffffffffffffffffffffffffffffffffff1663150b7a026123a761123f565b8786866040518563ffffffff1660e01b81526004016123c99493929190613888565b602060405180830381600087803b1580156123e357600080fd5b505af192505050801561241457506040513d601f19601f820116820180604052508101906124119190613144565b60015b612497573d8060008114612444576040519150601f19603f3d011682016040523d82523d6000602084013e612449565b606091505b5060008151141561248f576040517f08c379a000000000000000000000000000000000000000000000000000000000815260040161248690613b01565b60405180910390fd5b805181602001fd5b63150b7a0260e01b7bffffffffffffffffffffffffffffffffffffffffffffffffffffffff1916817bffffffffffffffffffffffffffffffffffffffffffffffffffffffff1916149150506124ec565b600190505b949350505050565b600073ffffffffffffffffffffffffffffffffffffffff168173ffffffffffffffffffffffffffffffffffffffff161415612564576040517f08c379a000000000000000000000000000000000000000000000000000000000815260040161255b90613bc1565b60405180910390fd5b600660009054906101000a900473ffffffffffffffffffffffffffffffffffffffff1673ffffffffffffffffffffffffffffffffffffffff16633ca3ad4e826040518263ffffffff1660e01b81526004016125bf91906139ac565b60206040518083038186803b1580156125d757600080fd5b505afa1580156125eb573d6000803e3d6000fd5b505050506040513d601f19601f8201168201806040525081019061260f91906130c9565b1561264f576040517f08c379a000000000000000000000000000000000000000000000000000000000815260040161264690613c61565b60405180910390fd5b600960009054906101000a900473ffffffffffffffffffffffffffffffffffffffff1673ffffffffffffffffffffffffffffffffffffffff168173ffffffffffffffffffffffffffffffffffffffff1614156126aa57612d0b565b6000600760009054906101000a900473ffffffffffffffffffffffffffffffffffffffff1673ffffffffffffffffffffffffffffffffffffffff1663e6a1e888600860009054906101000a900473ffffffffffffffffffffffffffffffffffffffff1630600960009054906101000a900473ffffffffffffffffffffffffffffffffffffffff166040518463ffffffff1660e01b815260040161274f939291906139f0565b60806040518083038186803b15801561276757600080fd5b505afa15801561277b573d6000803e3d6000fd5b505050506040513d601f19601f8201168201806040525081019061279f91906133fb565b5050915050600081600b0b1315612c6f57600660009054906101000a900473ffffffffffffffffffffffffffffffffffffffff1673ffffffffffffffffffffffffffffffffffffffff166339255d5b600760009054906101000a900473ffffffffffffffffffffffffffffffffffffffff1663b4b333c660e01b600860009054906101000a900473ffffffffffffffffffffffffffffffffffffffff1630600960009054906101000a900473ffffffffffffffffffffffffffffffffffffffff16600067ffffffffffffffff8111156128a1577f4e487b7100000000000000000000000000000000000000000000000000000000600052604160045260246000fd5b6040519080825280601f01601f1916602001820160405280156128d35781602001600182028036833780820191505090505b506040516024016128e79493929190613a27565b604051602081830303815290604052907bffffffffffffffffffffffffffffffffffffffffffffffffffffffff19166020820180517bffffffffffffffffffffffffffffffffffffffffffffffffffffffff83818316178352505050506040518363ffffffff1660e01b8152600401612961929190613911565b600060405180830381600087803b15801561297b57600080fd5b505af115801561298f573d6000803e3d6000fd5b505050506040513d6000823e3d601f19601f820116820180604052508101906129b8919061316d565b50600660009054906101000a900473ffffffffffffffffffffffffffffffffffffffff1673ffffffffffffffffffffffffffffffffffffffff166339255d5b600760009054906101000a900473ffffffffffffffffffffffffffffffffffffffff166362fc305e60e01b600860009054906101000a900473ffffffffffffffffffffffffffffffffffffffff1686600760009054906101000a900473ffffffffffffffffffffffffffffffffffffffff1673ffffffffffffffffffffffffffffffffffffffff1663e8e7e2d1600860009054906101000a900473ffffffffffffffffffffffffffffffffffffffff16306040518363ffffffff1660e01b8152600401612ac59291906139c7565b60206040518083038186803b158015612add57600080fd5b505afa158015612af1573d6000803e3d6000fd5b505050506040513d601f19601f82011682018060405250810190612b1591906133a9565b600067ffffffffffffffff811115612b56577f4e487b7100000000000000000000000000000000000000000000000000000000600052604160045260246000fd5b6040519080825280601f01601f191660200182016040528015612b885781602001600182028036833780820191505090505b50604051602401612b9c9493929190613a73565b604051602081830303815290604052907bffffffffffffffffffffffffffffffffffffffffffffffffffffffff19166020820180517bffffffffffffffffffffffffffffffffffffffffffffffffffffffff83818316178352505050506040518363ffffffff1660e01b8152600401612c16929190613911565b600060405180830381600087803b158015612c3057600080fd5b505af1158015612c44573d6000803e3d6000fd5b505050506040513d6000823e3d601f19601f82011682018060405250810190612c6d919061316d565b505b81600960006101000a81548173ffffffffffffffffffffffffffffffffffffffff021916908373ffffffffffffffffffffffffffffffffffffffff1602179055507f7dfb1d59db37a3fd2e15e796c189dcab714cdbb18650d68a1de58f8fa60718c9600960009054906101000a900473ffffffffffffffffffffffffffffffffffffffff16604051612d01919061386d565b60405180910390a1505b50565b600080823b905060008111915050919050565b6000612d34612d2f84613dd8565b613db3565b905082815260208101848484011115612d4c57600080fd5b612d57848285614090565b509392505050565b6000612d72612d6d84613dd8565b613db3565b905082815260208101848484011115612d8a57600080fd5b612d9584828561409f565b509392505050565b600081359050612dac8161485f565b92915050565b600081359050612dc181614876565b92915050565b600081519050612dd681614876565b92915050565b600081359050612deb8161488d565b92915050565b600081519050612e008161488d565b92915050565b600081359050612e15816148a4565b92915050565b600081519050612e2a816148a4565b92915050565b60008083601f840112612e4257600080fd5b8235905067ffffffffffffffff811115612e5b57600080fd5b602083019150836001820283011115612e7357600080fd5b9250929050565b600082601f830112612e8b57600080fd5b8135612e9b848260208601612d21565b91505092915050565b600082601f830112612eb557600080fd5b8151612ec5848260208601612d5f565b91505092915050565b600081359050612edd816148bb565b92915050565b600081519050612ef2816148d2565b92915050565b600081359050612f07816148e9565b92915050565b600081519050612f1c816148e9565b92915050565b600060208284031215612f3457600080fd5b6000612f4284828501612d9d565b91505092915050565b60008060408385031215612f5e57600080fd5b6000612f6c85828601612d9d565b9250506020612f7d85828601612d9d565b9150509250929050565b600080600060608486031215612f9c57600080fd5b6000612faa86828701612d9d565b9350506020612fbb86828701612d9d565b9250506040612fcc86828701612ef8565b9150509250925092565b60008060008060808587031215612fec57600080fd5b6000612ffa87828801612d9d565b945050602061300b87828801612d9d565b935050604061301c87828801612ef8565b925050606085013567ffffffffffffffff81111561303957600080fd5b61304587828801612e7a565b91505092959194509250565b6000806040838503121561306457600080fd5b600061307285828601612d9d565b925050602061308385828601612db2565b9150509250929050565b600080604083850312156130a057600080fd5b60006130ae85828601612d9d565b92505060206130bf85828601612ef8565b9150509250929050565b6000602082840312156130db57600080fd5b60006130e984828501612dc7565b91505092915050565b60006020828403121561310457600080fd5b600061311284828501612df1565b91505092915050565b60006020828403121561312d57600080fd5b600061313b84828501612e06565b91505092915050565b60006020828403121561315657600080fd5b600061316484828501612e1b565b91505092915050565b60006020828403121561317f57600080fd5b600082015167ffffffffffffffff81111561319957600080fd5b6131a584828501612ea4565b91505092915050565b600080604083850312156131c157600080fd5b600083015167ffffffffffffffff8111156131db57600080fd5b6131e785828601612ea4565b925050602083015167ffffffffffffffff81111561320457600080fd5b61321085828601612ea4565b9150509250929050565b600080600080600080600060a0888a03121561323557600080fd5b60006132438a828b01612ece565b97505060206132548a828b01612d9d565b96505060406132658a828b01612ddc565b955050606088013567ffffffffffffffff81111561328257600080fd5b61328e8a828b01612e30565b9450945050608088013567ffffffffffffffff8111156132ad57600080fd5b6132b98a828b01612e30565b925092505092959891949750929550565b600080600080600080600080600060c08a8c0312156132e857600080fd5b60006132f68c828d01612ece565b99505060206133078c828d01612d9d565b98505060406133188c828d01612ddc565b97505060608a013567ffffffffffffffff81111561333557600080fd5b6133418c828d01612e30565b965096505060808a013567ffffffffffffffff81111561336057600080fd5b61336c8c828d01612e30565b945094505060a08a013567ffffffffffffffff81111561338b57600080fd5b6133978c828d01612e30565b92509250509295985092959850929598565b6000602082840312156133bb57600080fd5b60006133c984828501612ee3565b91505092915050565b6000602082840312156133e457600080fd5b60006133f284828501612ef8565b91505092915050565b6000806000806080858703121561341157600080fd5b600061341f87828801612f0d565b945050602061343087828801612ee3565b935050604061344187828801612f0d565b925050606061345287828801612f0d565b91505092959194509250565b61346781613f87565b82525050565b61347681613f99565b82525050565b600061348782613e09565b6134918185613e1f565b93506134a181856020860161409f565b6134aa8161426b565b840191505092915050565b6134be81614024565b82525050565b6134cd81614048565b82525050565b6134dc8161406c565b82525050565b6134eb81613fed565b82525050565b60006134fc82613e14565b6135068185613e30565b935061351681856020860161409f565b61351f8161426b565b840191505092915050565b600061353582613e14565b61353f8185613e41565b935061354f81856020860161409f565b80840191505092915050565b6000613568602183613e30565b91506135738261427c565b604082019050919050565b600061358b603283613e30565b9150613596826142cb565b604082019050919050565b60006135ae601f83613e30565b91506135b98261431a565b602082019050919050565b60006135d1603383613e30565b91506135dc82614343565b604082019050919050565b60006135f4602283613e30565b91506135ff82614392565b604082019050919050565b6000613617600283613e1f565b9150613622826143e1565b602082019050919050565b600061363a602483613e30565b91506136458261440a565b604082019050919050565b600061365d601983613e30565b915061366882614459565b602082019050919050565b6000613680601c83613e30565b915061368b82614482565b602082019050919050565b60006136a3602c83613e30565b91506136ae826144ab565b604082019050919050565b60006136c6603883613e30565b91506136d1826144fa565b604082019050919050565b60006136e9602a83613e30565b91506136f482614549565b604082019050919050565b600061370c602983613e30565b915061371782614598565b604082019050919050565b600061372f602283613e30565b915061373a826145e7565b604082019050919050565b6000613752602c83613e30565b915061375d82614636565b604082019050919050565b6000613775602983613e30565b915061378082614685565b604082019050919050565b6000613798602f83613e30565b91506137a3826146d4565b604082019050919050565b60006137bb602183613e30565b91506137c682614723565b604082019050919050565b60006137de602f83613e30565b91506137e982614772565b604082019050919050565b6000613801603183613e30565b915061380c826147c1565b604082019050919050565b6000613824602f83613e30565b915061382f82614810565b604082019050919050565b6138438161401a565b82525050565b6000613855828561352a565b9150613861828461352a565b91508190509392505050565b6000602082019050613882600083018461345e565b92915050565b600060808201905061389d600083018761345e565b6138aa602083018661345e565b6138b7604083018561383a565b81810360608301526138c9818461347c565b905095945050505050565b60006020820190506138e9600083018461346d565b92915050565b60006020820190508181036000830152613909818461347c565b905092915050565b600060608201905061392660008301856134b5565b8181036020830152613938818461347c565b9050818103604083015261394b8161360a565b90509392505050565b600060808201905061396960008301866134b5565b818103602083015261397b818561347c565b9050818103604083015261398e8161360a565b905081810360608301526139a2818461347c565b9050949350505050565b60006020820190506139c160008301846134c4565b92915050565b60006040820190506139dc60008301856134d3565b6139e9602083018461345e565b9392505050565b6000606082019050613a0560008301866134d3565b613a12602083018561345e565b613a1f604083018461345e565b949350505050565b6000608082019050613a3c60008301876134d3565b613a49602083018661345e565b613a56604083018561345e565b8181036060830152613a68818461347c565b905095945050505050565b6000608082019050613a8860008301876134d3565b613a95602083018661345e565b613aa260408301856134e2565b8181036060830152613ab4818461347c565b905095945050505050565b60006020820190508181036000830152613ad981846134f1565b905092915050565b60006020820190508181036000830152613afa8161355b565b9050919050565b60006020820190508181036000830152613b1a8161357e565b9050919050565b60006020820190508181036000830152613b3a816135a1565b9050919050565b60006020820190508181036000830152613b5a816135c4565b9050919050565b60006020820190508181036000830152613b7a816135e7565b9050919050565b60006020820190508181036000830152613b9a8161362d565b9050919050565b60006020820190508181036000830152613bba81613650565b9050919050565b60006020820190508181036000830152613bda81613673565b9050919050565b60006020820190508181036000830152613bfa81613696565b9050919050565b60006020820190508181036000830152613c1a816136b9565b9050919050565b60006020820190508181036000830152613c3a816136dc565b9050919050565b60006020820190508181036000830152613c5a816136ff565b9050919050565b60006020820190508181036000830152613c7a81613722565b9050919050565b60006020820190508181036000830152613c9a81613745565b9050919050565b60006020820190508181036000830152613cba81613768565b9050919050565b60006020820190508181036000830152613cda8161378b565b9050919050565b60006020820190508181036000830152613cfa816137ae565b9050919050565b60006020820190508181036000830152613d1a816137d1565b9050919050565b60006020820190508181036000830152613d3a816137f4565b9050919050565b60006020820190508181036000830152613d5a81613817565b9050919050565b6000602082019050613d76600083018461383a565b92915050565b6000606082019050613d91600083018661383a565b613d9e602083018561345e565b613dab60408301846134e2565b949350505050565b6000613dbd613dce565b9050613dc98282614104565b919050565b6000604051905090565b600067ffffffffffffffff821115613df357613df261423c565b5b613dfc8261426b565b9050602081019050919050565b600081519050919050565b600081519050919050565b600082825260208201905092915050565b600082825260208201905092915050565b600081905092915050565b6000613e5782613fed565b9150613e6283613fed565b9250816b7fffffffffffffffffffffff03831360008312151615613e8957613e886141af565b5b817fffffffffffffffffffffffffffffffffffffffff800000000000000000000000038312600083121615613ec157613ec06141af565b5b828201905092915050565b6000613ed78261401a565b9150613ee28361401a565b9250827fffffffffffffffffffffffffffffffffffffffffffffffffffffffffffffffff03821115613f1757613f166141af565b5b828201905092915050565b6000613f2d8261401a565b9150613f388361401a565b925082613f4857613f476141de565b5b828204905092915050565b6000613f5e8261401a565b9150613f698361401a565b925082821015613f7c57613f7b6141af565b5b828203905092915050565b6000613f9282613ffa565b9050919050565b60008115159050919050565b6000819050919050565b60007fffffffff0000000000000000000000000000000000000000000000000000000082169050919050565b6000613fe682613f87565b9050919050565b600081600b0b9050919050565b600073ffffffffffffffffffffffffffffffffffffffff82169050919050565b6000819050919050565b600061402f82614036565b9050919050565b600061404182613ffa565b9050919050565b60006140538261405a565b9050919050565b600061406582613ffa565b9050919050565b60006140778261407e565b9050919050565b600061408982613ffa565b9050919050565b82818337600083830152505050565b60005b838110156140bd5780820151818401526020810190506140a2565b838111156140cc576000848401525b50505050565b600060028204905060018216806140ea57607f821691505b602082108114156140fe576140fd61420d565b5b50919050565b61410d8261426b565b810181811067ffffffffffffffff8211171561412c5761412b61423c565b5b80604052505050565b60006141408261401a565b91507fffffffffffffffffffffffffffffffffffffffffffffffffffffffffffffffff821415614173576141726141af565b5b600182019050919050565b60006141898261401a565b91506141948361401a565b9250826141a4576141a36141de565b5b828206905092915050565b7f4e487b7100000000000000000000000000000000000000000000000000000000600052601160045260246000fd5b7f4e487b7100000000000000000000000000000000000000000000000000000000600052601260045260246000fd5b7f4e487b7100000000000000000000000000000000000000000000000000000000600052602260045260246000fd5b7f4e487b7100000000000000000000000000000000000000000000000000000000600052604160045260246000fd5b6000601f19601f8301169050919050565b7f5265646972656374416c6c3a206f6e6c7920434641763120737570706f72746560008201527f6400000000000000000000000000000000000000000000000000000000000000602082015250565b7f4552433732313a207472616e7366657220746f206e6f6e20455243373231526560008201527f63656976657220696d706c656d656e7465720000000000000000000000000000602082015250565b7f5265646972656374416c6c3a206e6f7420616363657074656420746f6b656e00600082015250565b7f556e737570706f727465642063616c6c6261636b202d20204265666f7265204160008201527f677265656d656e74205465726d696e6174656400000000000000000000000000602082015250565b7f5265646972656374416c6c3a20737570706f7274206f6e6c79206f6e6520686f60008201527f7374000000000000000000000000000000000000000000000000000000000000602082015250565b7f3078000000000000000000000000000000000000000000000000000000000000600082015250565b7f4552433732313a207472616e7366657220746f20746865207a65726f2061646460008201527f7265737300000000000000000000000000000000000000000000000000000000602082015250565b7f4552433732313a20617070726f766520746f2063616c6c657200000000000000600082015250565b7f4e6577207265636569766572206973207a65726f206164647265737300000000600082015250565b7f4552433732313a206f70657261746f7220717565727920666f72206e6f6e657860008201527f697374656e7420746f6b656e0000000000000000000000000000000000000000602082015250565b7f4552433732313a20617070726f76652063616c6c6572206973206e6f74206f7760008201527f6e6572206e6f7220617070726f76656420666f7220616c6c0000000000000000602082015250565b7f4552433732313a2062616c616e636520717565727920666f7220746865207a6560008201527f726f206164647265737300000000000000000000000000000000000000000000602082015250565b7f4552433732313a206f776e657220717565727920666f72206e6f6e657869737460008201527f656e7420746f6b656e0000000000000000000000000000000000000000000000602082015250565b7f4e65772072656365697665722063616e206e6f7420626520612073757065724160008201527f7070000000000000000000000000000000000000000000000000000000000000602082015250565b7f4552433732313a20617070726f76656420717565727920666f72206e6f6e657860008201527f697374656e7420746f6b656e0000000000000000000000000000000000000000602082015250565b7f4552433732313a207472616e73666572206f6620746f6b656e2074686174206960008201527f73206e6f74206f776e0000000000000000000000000000000000000000000000602082015250565b7f4552433732314d657461646174613a2055524920717565727920666f72206e6f60008201527f6e6578697374656e7420746f6b656e0000000000000000000000000000000000602082015250565b7f4552433732313a20617070726f76616c20746f2063757272656e74206f776e6560008201527f7200000000000000000000000000000000000000000000000000000000000000602082015250565b7f556e737570706f727465642063616c6c6261636b202d204265666f726520416760008201527f7265656d656e7420757064617465640000000000000000000000000000000000602082015250565b7f4552433732313a207472616e736665722063616c6c6572206973206e6f74206f60008201527f776e6572206e6f7220617070726f766564000000000000000000000000000000602082015250565b7f556e737570706f727465642063616c6c6261636b202d204265666f726520416760008201527f7265656d656e7420437265617465640000000000000000000000000000000000602082015250565b61486881613f87565b811461487357600080fd5b50565b61487f81613f99565b811461488a57600080fd5b50565b61489681613fa5565b81146148a157600080fd5b50565b6148ad81613faf565b81146148b857600080fd5b50565b6148c481613fdb565b81146148cf57600080fd5b50565b6148db81613fed565b81146148e657600080fd5b50565b6148f28161401a565b81146148fd57600080fd5b5056fea2646970667358221220836f41bd8df0fb61227635532f33f9e36745ce05249aa3af15f2107740ab9c7c64736f6c63430008040033",
  "linkReferences": {},
  "deployedLinkReferences": {}
}